{
	"Assignment3/CertProff.sol": {
		"Verification": {
			"abi": [
				{
					"inputs": [
						{
							"internalType": "address",
							"name": "registryAddress",
							"type": "address"
						}
					],
					"stateMutability": "nonpayable",
					"type": "constructor"
				},
				{
					"inputs": [],
					"name": "registry",
					"outputs": [
						{
							"internalType": "contract Registry",
							"name": "",
							"type": "address"
						}
					],
					"stateMutability": "view",
					"type": "function"
				},
				{
					"inputs": [
						{
							"internalType": "string",
							"name": "_credentialID",
							"type": "string"
						}
					],
					"name": "verifyCredential",
					"outputs": [
						{
							"components": [
								{
									"internalType": "string",
									"name": "credentialID",
									"type": "string"
								},
								{
									"internalType": "string",
									"name": "qualificationTitle",
									"type": "string"
								},
								{
									"internalType": "string",
									"name": "issuingInstitution",
									"type": "string"
								},
								{
									"internalType": "uint256",
									"name": "issueDate",
									"type": "uint256"
								},
								{
									"internalType": "enum CertificateStatus",
									"name": "status",
									"type": "uint8"
								},
								{
									"internalType": "bool",
									"name": "valid",
									"type": "bool"
								}
							],
							"internalType": "struct Verification.VerificationResult",
							"name": "",
							"type": "tuple"
						}
					],
					"stateMutability": "view",
					"type": "function"
				}
			],
			"devdoc": {
				"kind": "dev",
				"methods": {},
				"version": 1
			},
			"evm": {
				"assembly": "    /* \"Assignment3/CertProff.sol\":8439:10340  contract Verification {... */\n  mstore(0x40, 0x80)\n    /* \"Assignment3/CertProff.sol\":8622:8716  constructor(address registryAddress) {... */\n  callvalue\n  dup1\n  iszero\n  tag_1\n  jumpi\n  revert(0x00, 0x00)\ntag_1:\n  pop\n  mload(0x40)\n  sub(codesize, bytecodeSize)\n  dup1\n  bytecodeSize\n  dup4\n  codecopy\n  dup2\n  dup2\n  add\n  0x40\n  mstore\n  dup2\n  add\n  swap1\n  tag_2\n  swap2\n  swap1\n  tag_3\n  jump\t// in\ntag_2:\n    /* \"Assignment3/CertProff.sol\":8692:8707  registryAddress */\n  dup1\n    /* \"Assignment3/CertProff.sol\":8672:8680  registry */\n  0x00\n  0x00\n    /* \"Assignment3/CertProff.sol\":8672:8708  registry = Registry(registryAddress) */\n  0x0100\n  exp\n  dup2\n  sload\n  dup2\n  0xffffffffffffffffffffffffffffffffffffffff\n  mul\n  not\n  and\n  swap1\n  dup4\n  0xffffffffffffffffffffffffffffffffffffffff\n  and\n  mul\n  or\n  swap1\n  sstore\n  pop\n    /* \"Assignment3/CertProff.sol\":8622:8716  constructor(address registryAddress) {... */\n  pop\n    /* \"Assignment3/CertProff.sol\":8439:10340  contract Verification {... */\n  jump(tag_6)\n    /* \"#utility.yul\":88:205   */\ntag_8:\n    /* \"#utility.yul\":197:198   */\n  0x00\n    /* \"#utility.yul\":194:195   */\n  0x00\n    /* \"#utility.yul\":187:199   */\n  revert\n    /* \"#utility.yul\":334:460   */\ntag_10:\n    /* \"#utility.yul\":371:378   */\n  0x00\n    /* \"#utility.yul\":411:453   */\n  0xffffffffffffffffffffffffffffffffffffffff\n    /* \"#utility.yul\":404:409   */\n  dup3\n    /* \"#utility.yul\":400:454   */\n  and\n    /* \"#utility.yul\":389:454   */\n  swap1\n  pop\n    /* \"#utility.yul\":334:460   */\n  swap2\n  swap1\n  pop\n  jump\t// out\n    /* \"#utility.yul\":466:562   */\ntag_11:\n    /* \"#utility.yul\":503:510   */\n  0x00\n    /* \"#utility.yul\":532:556   */\n  tag_20\n    /* \"#utility.yul\":550:555   */\n  dup3\n    /* \"#utility.yul\":532:556   */\n  tag_10\n  jump\t// in\ntag_20:\n    /* \"#utility.yul\":521:556   */\n  swap1\n  pop\n    /* \"#utility.yul\":466:562   */\n  swap2\n  swap1\n  pop\n  jump\t// out\n    /* \"#utility.yul\":568:690   */\ntag_12:\n    /* \"#utility.yul\":641:665   */\n  tag_22\n    /* \"#utility.yul\":659:664   */\n  dup2\n    /* \"#utility.yul\":641:665   */\n  tag_11\n  jump\t// in\ntag_22:\n    /* \"#utility.yul\":634:639   */\n  dup2\n    /* \"#utility.yul\":631:666   */\n  eq\n    /* \"#utility.yul\":621:684   */\n  tag_23\n  jumpi\n    /* \"#utility.yul\":680:681   */\n  0x00\n    /* \"#utility.yul\":677:678   */\n  0x00\n    /* \"#utility.yul\":670:682   */\n  revert\n    /* \"#utility.yul\":621:684   */\ntag_23:\n    /* \"#utility.yul\":568:690   */\n  pop\n  jump\t// out\n    /* \"#utility.yul\":696:839   */\ntag_13:\n    /* \"#utility.yul\":753:758   */\n  0x00\n    /* \"#utility.yul\":784:790   */\n  dup2\n    /* \"#utility.yul\":778:791   */\n  mload\n    /* \"#utility.yul\":769:791   */\n  swap1\n  pop\n    /* \"#utility.yul\":800:833   */\n  tag_25\n    /* \"#utility.yul\":827:832   */\n  dup2\n    /* \"#utility.yul\":800:833   */\n  tag_12\n  jump\t// in\ntag_25:\n    /* \"#utility.yul\":696:839   */\n  swap3\n  swap2\n  pop\n  pop\n  jump\t// out\n    /* \"#utility.yul\":845:1196   */\ntag_3:\n    /* \"#utility.yul\":915:921   */\n  0x00\n    /* \"#utility.yul\":964:966   */\n  0x20\n    /* \"#utility.yul\":952:961   */\n  dup3\n    /* \"#utility.yul\":943:950   */\n  dup5\n    /* \"#utility.yul\":939:962   */\n  sub\n    /* \"#utility.yul\":935:967   */\n  slt\n    /* \"#utility.yul\":932:1051   */\n  iszero\n  tag_27\n  jumpi\n    /* \"#utility.yul\":970:1049   */\n  tag_28\n  tag_8\n  jump\t// in\ntag_28:\n    /* \"#utility.yul\":932:1051   */\ntag_27:\n    /* \"#utility.yul\":1090:1091   */\n  0x00\n    /* \"#utility.yul\":1115:1179   */\n  tag_29\n    /* \"#utility.yul\":1171:1178   */\n  dup5\n    /* \"#utility.yul\":1162:1168   */\n  dup3\n    /* \"#utility.yul\":1151:1160   */\n  dup6\n    /* \"#utility.yul\":1147:1169   */\n  add\n    /* \"#utility.yul\":1115:1179   */\n  tag_13\n  jump\t// in\ntag_29:\n    /* \"#utility.yul\":1105:1179   */\n  swap2\n  pop\n    /* \"#utility.yul\":1061:1189   */\n  pop\n    /* \"#utility.yul\":845:1196   */\n  swap3\n  swap2\n  pop\n  pop\n  jump\t// out\n    /* \"Assignment3/CertProff.sol\":8439:10340  contract Verification {... */\ntag_6:\n  dataSize(sub_0)\n  dup1\n  dataOffset(sub_0)\n  0x00\n  codecopy\n  0x00\n  return\nstop\n\nsub_0: assembly {\n        /* \"Assignment3/CertProff.sol\":8439:10340  contract Verification {... */\n      mstore(0x40, 0x80)\n      callvalue\n      dup1\n      iszero\n      tag_1\n      jumpi\n      revert(0x00, 0x00)\n    tag_1:\n      pop\n      jumpi(tag_2, lt(calldatasize, 0x04))\n      shr(0xe0, calldataload(0x00))\n      dup1\n      0x7b103999\n      eq\n      tag_3\n      jumpi\n      dup1\n      0xbb3670ab\n      eq\n      tag_4\n      jumpi\n    tag_2:\n      revert(0x00, 0x00)\n        /* \"Assignment3/CertProff.sol\":8509:8533  Registry public registry */\n    tag_3:\n      tag_5\n      tag_6\n      jump\t// in\n    tag_5:\n      mload(0x40)\n      tag_7\n      swap2\n      swap1\n      tag_8\n      jump\t// in\n    tag_7:\n      mload(0x40)\n      dup1\n      swap2\n      sub\n      swap1\n      return\n        /* \"Assignment3/CertProff.sol\":9272:10337  function verifyCredential(... */\n    tag_4:\n      tag_9\n      0x04\n      dup1\n      calldatasize\n      sub\n      dup2\n      add\n      swap1\n      tag_10\n      swap2\n      swap1\n      tag_11\n      jump\t// in\n    tag_10:\n      tag_12\n      jump\t// in\n    tag_9:\n      mload(0x40)\n      tag_13\n      swap2\n      swap1\n      tag_14\n      jump\t// in\n    tag_13:\n      mload(0x40)\n      dup1\n      swap2\n      sub\n      swap1\n      return\n        /* \"Assignment3/CertProff.sol\":8509:8533  Registry public registry */\n    tag_6:\n      0x00\n      0x00\n      swap1\n      sload\n      swap1\n      0x0100\n      exp\n      swap1\n      div\n      0xffffffffffffffffffffffffffffffffffffffff\n      and\n      dup2\n      jump\t// out\n        /* \"Assignment3/CertProff.sol\":9272:10337  function verifyCredential(... */\n    tag_12:\n        /* \"Assignment3/CertProff.sol\":9391:9416  VerificationResult memory */\n      tag_15\n      tag_16\n      jump\t// in\n    tag_15:\n        /* \"Assignment3/CertProff.sol\":9557:9583  string memory credentialID */\n      0x00\n        /* \"Assignment3/CertProff.sol\":9598:9630  string memory qualificationTitle */\n      0x00\n        /* \"Assignment3/CertProff.sol\":9645:9677  string memory issuingInstitution */\n      0x00\n        /* \"Assignment3/CertProff.sol\":9692:9709  uint256 issueDate */\n      0x00\n        /* \"Assignment3/CertProff.sol\":9724:9748  CertificateStatus status */\n      0x00\n        /* \"Assignment3/CertProff.sol\":9765:9773  registry */\n      0x00\n      0x00\n      swap1\n      sload\n      swap1\n      0x0100\n      exp\n      swap1\n      div\n      0xffffffffffffffffffffffffffffffffffffffff\n      and\n        /* \"Assignment3/CertProff.sol\":9765:9787  registry.getCredential */\n      0xffffffffffffffffffffffffffffffffffffffff\n      and\n      0xd091187f\n        /* \"Assignment3/CertProff.sol\":9788:9801  _credentialID */\n      dup9\n        /* \"Assignment3/CertProff.sol\":9765:9802  registry.getCredential(_credentialID) */\n      mload(0x40)\n      dup3\n      0xffffffff\n      and\n      0xe0\n      shl\n      dup2\n      mstore\n      0x04\n      add\n      tag_18\n      swap2\n      swap1\n      tag_19\n      jump\t// in\n    tag_18:\n      0x00\n      mload(0x40)\n      dup1\n      dup4\n      sub\n      dup2\n      dup7\n      gas\n      staticcall\n      iszero\n      dup1\n      iszero\n      tag_21\n      jumpi\n      returndatacopy(0x00, 0x00, returndatasize)\n      revert(0x00, returndatasize)\n    tag_21:\n      pop\n      pop\n      pop\n      pop\n      mload(0x40)\n      returndatasize\n      0x00\n      dup3\n      returndatacopy\n      returndatasize\n      not(0x1f)\n      0x1f\n      dup3\n      add\n      and\n      dup3\n      add\n      dup1\n      0x40\n      mstore\n      pop\n      dup2\n      add\n      swap1\n      tag_22\n      swap2\n      swap1\n      tag_23\n      jump\t// in\n    tag_22:\n        /* \"Assignment3/CertProff.sol\":9542:9802  (... */\n      pop\n      swap5\n      pop\n      swap5\n      pop\n      swap5\n      pop\n      swap5\n      pop\n      swap5\n      pop\n        /* \"Assignment3/CertProff.sol\":9922:9934  bool isValid */\n      0x00\n        /* \"Assignment3/CertProff.sol\":9948:9972  CertificateStatus.Active */\n      0x00\n        /* \"Assignment3/CertProff.sol\":9938:9972  status == CertificateStatus.Active */\n      0x03\n      dup2\n      gt\n      iszero\n      tag_24\n      jumpi\n      tag_25\n      tag_26\n      jump\t// in\n    tag_25:\n    tag_24:\n        /* \"Assignment3/CertProff.sol\":9938:9944  status */\n      dup3\n        /* \"Assignment3/CertProff.sol\":9938:9972  status == CertificateStatus.Active */\n      0x03\n      dup2\n      gt\n      iszero\n      tag_27\n      jumpi\n      tag_28\n      tag_26\n      jump\t// in\n    tag_28:\n    tag_27:\n      eq\n        /* \"Assignment3/CertProff.sol\":9922:9973  bool isValid = (status == CertificateStatus.Active) */\n      swap1\n      pop\n        /* \"Assignment3/CertProff.sol\":10058:10329  VerificationResult({... */\n      mload(0x40)\n      dup1\n      0xc0\n      add\n      0x40\n      mstore\n      dup1\n        /* \"Assignment3/CertProff.sol\":10106:10118  credentialID */\n      dup8\n        /* \"Assignment3/CertProff.sol\":10058:10329  VerificationResult({... */\n      dup2\n      mstore\n      0x20\n      add\n        /* \"Assignment3/CertProff.sol\":10153:10171  qualificationTitle */\n      dup7\n        /* \"Assignment3/CertProff.sol\":10058:10329  VerificationResult({... */\n      dup2\n      mstore\n      0x20\n      add\n        /* \"Assignment3/CertProff.sol\":10206:10224  issuingInstitution */\n      dup6\n        /* \"Assignment3/CertProff.sol\":10058:10329  VerificationResult({... */\n      dup2\n      mstore\n      0x20\n      add\n        /* \"Assignment3/CertProff.sol\":10250:10259  issueDate */\n      dup5\n        /* \"Assignment3/CertProff.sol\":10058:10329  VerificationResult({... */\n      dup2\n      mstore\n      0x20\n      add\n        /* \"Assignment3/CertProff.sol\":10282:10288  status */\n      dup4\n        /* \"Assignment3/CertProff.sol\":10058:10329  VerificationResult({... */\n      0x03\n      dup2\n      gt\n      iszero\n      tag_29\n      jumpi\n      tag_30\n      tag_26\n      jump\t// in\n    tag_30:\n    tag_29:\n      dup2\n      mstore\n      0x20\n      add\n        /* \"Assignment3/CertProff.sol\":10310:10317  isValid */\n      dup3\n        /* \"Assignment3/CertProff.sol\":10058:10329  VerificationResult({... */\n      iszero\n      iszero\n      dup2\n      mstore\n      pop\n        /* \"Assignment3/CertProff.sol\":10051:10329  return VerificationResult({... */\n      swap7\n      pop\n      pop\n      pop\n      pop\n      pop\n      pop\n      pop\n        /* \"Assignment3/CertProff.sol\":9272:10337  function verifyCredential(... */\n      swap2\n      swap1\n      pop\n      jump\t// out\n    tag_16:\n      mload(0x40)\n      dup1\n      0xc0\n      add\n      0x40\n      mstore\n      dup1\n      0x60\n      dup2\n      mstore\n      0x20\n      add\n      0x60\n      dup2\n      mstore\n      0x20\n      add\n      0x60\n      dup2\n      mstore\n      0x20\n      add\n      0x00\n      dup2\n      mstore\n      0x20\n      add\n      0x00\n      0x03\n      dup2\n      gt\n      iszero\n      tag_31\n      jumpi\n      tag_32\n      tag_26\n      jump\t// in\n    tag_32:\n    tag_31:\n      dup2\n      mstore\n      0x20\n      add\n      iszero(iszero(0x00))\n      dup2\n      mstore\n      pop\n      swap1\n      jump\t// out\n        /* \"#utility.yul\":7:133   */\n    tag_33:\n        /* \"#utility.yul\":44:51   */\n      0x00\n        /* \"#utility.yul\":84:126   */\n      0xffffffffffffffffffffffffffffffffffffffff\n        /* \"#utility.yul\":77:82   */\n      dup3\n        /* \"#utility.yul\":73:127   */\n      and\n        /* \"#utility.yul\":62:127   */\n      swap1\n      pop\n        /* \"#utility.yul\":7:133   */\n      swap2\n      swap1\n      pop\n      jump\t// out\n        /* \"#utility.yul\":139:199   */\n    tag_34:\n        /* \"#utility.yul\":167:170   */\n      0x00\n        /* \"#utility.yul\":188:193   */\n      dup2\n        /* \"#utility.yul\":181:193   */\n      swap1\n      pop\n        /* \"#utility.yul\":139:199   */\n      swap2\n      swap1\n      pop\n      jump\t// out\n        /* \"#utility.yul\":205:347   */\n    tag_35:\n        /* \"#utility.yul\":255:264   */\n      0x00\n        /* \"#utility.yul\":288:341   */\n      tag_80\n        /* \"#utility.yul\":306:340   */\n      tag_81\n        /* \"#utility.yul\":315:339   */\n      tag_82\n        /* \"#utility.yul\":333:338   */\n      dup5\n        /* \"#utility.yul\":315:339   */\n      tag_33\n      jump\t// in\n    tag_82:\n        /* \"#utility.yul\":306:340   */\n      tag_34\n      jump\t// in\n    tag_81:\n        /* \"#utility.yul\":288:341   */\n      tag_33\n      jump\t// in\n    tag_80:\n        /* \"#utility.yul\":275:341   */\n      swap1\n      pop\n        /* \"#utility.yul\":205:347   */\n      swap2\n      swap1\n      pop\n      jump\t// out\n        /* \"#utility.yul\":353:479   */\n    tag_36:\n        /* \"#utility.yul\":403:412   */\n      0x00\n        /* \"#utility.yul\":436:473   */\n      tag_84\n        /* \"#utility.yul\":467:472   */\n      dup3\n        /* \"#utility.yul\":436:473   */\n      tag_35\n      jump\t// in\n    tag_84:\n        /* \"#utility.yul\":423:473   */\n      swap1\n      pop\n        /* \"#utility.yul\":353:479   */\n      swap2\n      swap1\n      pop\n      jump\t// out\n        /* \"#utility.yul\":485:627   */\n    tag_37:\n        /* \"#utility.yul\":551:560   */\n      0x00\n        /* \"#utility.yul\":584:621   */\n      tag_86\n        /* \"#utility.yul\":615:620   */\n      dup3\n        /* \"#utility.yul\":584:621   */\n      tag_36\n      jump\t// in\n    tag_86:\n        /* \"#utility.yul\":571:621   */\n      swap1\n      pop\n        /* \"#utility.yul\":485:627   */\n      swap2\n      swap1\n      pop\n      jump\t// out\n        /* \"#utility.yul\":633:796   */\n    tag_38:\n        /* \"#utility.yul\":736:789   */\n      tag_88\n        /* \"#utility.yul\":783:788   */\n      dup2\n        /* \"#utility.yul\":736:789   */\n      tag_37\n      jump\t// in\n    tag_88:\n        /* \"#utility.yul\":731:734   */\n      dup3\n        /* \"#utility.yul\":724:790   */\n      mstore\n        /* \"#utility.yul\":633:796   */\n      pop\n      pop\n      jump\t// out\n        /* \"#utility.yul\":802:1056   */\n    tag_8:\n        /* \"#utility.yul\":911:915   */\n      0x00\n        /* \"#utility.yul\":949:951   */\n      0x20\n        /* \"#utility.yul\":938:947   */\n      dup3\n        /* \"#utility.yul\":934:952   */\n      add\n        /* \"#utility.yul\":926:952   */\n      swap1\n      pop\n        /* \"#utility.yul\":962:1049   */\n      tag_90\n        /* \"#utility.yul\":1046:1047   */\n      0x00\n        /* \"#utility.yul\":1035:1044   */\n      dup4\n        /* \"#utility.yul\":1031:1048   */\n      add\n        /* \"#utility.yul\":1022:1028   */\n      dup5\n        /* \"#utility.yul\":962:1049   */\n      tag_38\n      jump\t// in\n    tag_90:\n        /* \"#utility.yul\":802:1056   */\n      swap3\n      swap2\n      pop\n      pop\n      jump\t// out\n        /* \"#utility.yul\":1062:1137   */\n    tag_39:\n        /* \"#utility.yul\":1095:1101   */\n      0x00\n        /* \"#utility.yul\":1128:1130   */\n      0x40\n        /* \"#utility.yul\":1122:1131   */\n      mload\n        /* \"#utility.yul\":1112:1131   */\n      swap1\n      pop\n        /* \"#utility.yul\":1062:1137   */\n      swap1\n      jump\t// out\n        /* \"#utility.yul\":1143:1260   */\n    tag_40:\n        /* \"#utility.yul\":1252:1253   */\n      0x00\n        /* \"#utility.yul\":1249:1250   */\n      0x00\n        /* \"#utility.yul\":1242:1254   */\n      revert\n        /* \"#utility.yul\":1266:1383   */\n    tag_41:\n        /* \"#utility.yul\":1375:1376   */\n      0x00\n        /* \"#utility.yul\":1372:1373   */\n      0x00\n        /* \"#utility.yul\":1365:1377   */\n      revert\n        /* \"#utility.yul\":1389:1506   */\n    tag_42:\n        /* \"#utility.yul\":1498:1499   */\n      0x00\n        /* \"#utility.yul\":1495:1496   */\n      0x00\n        /* \"#utility.yul\":1488:1500   */\n      revert\n        /* \"#utility.yul\":1512:1629   */\n    tag_43:\n        /* \"#utility.yul\":1621:1622   */\n      0x00\n        /* \"#utility.yul\":1618:1619   */\n      0x00\n        /* \"#utility.yul\":1611:1623   */\n      revert\n        /* \"#utility.yul\":1635:1737   */\n    tag_44:\n        /* \"#utility.yul\":1676:1682   */\n      0x00\n        /* \"#utility.yul\":1727:1729   */\n      0x1f\n        /* \"#utility.yul\":1723:1730   */\n      not\n        /* \"#utility.yul\":1718:1720   */\n      0x1f\n        /* \"#utility.yul\":1711:1716   */\n      dup4\n        /* \"#utility.yul\":1707:1721   */\n      add\n        /* \"#utility.yul\":1703:1731   */\n      and\n        /* \"#utility.yul\":1693:1731   */\n      swap1\n      pop\n        /* \"#utility.yul\":1635:1737   */\n      swap2\n      swap1\n      pop\n      jump\t// out\n        /* \"#utility.yul\":1743:1923   */\n    tag_45:\n        /* \"#utility.yul\":1791:1868   */\n      0x4e487b7100000000000000000000000000000000000000000000000000000000\n        /* \"#utility.yul\":1788:1789   */\n      0x00\n        /* \"#utility.yul\":1781:1869   */\n      mstore\n        /* \"#utility.yul\":1888:1892   */\n      0x41\n        /* \"#utility.yul\":1885:1886   */\n      0x04\n        /* \"#utility.yul\":1878:1893   */\n      mstore\n        /* \"#utility.yul\":1912:1916   */\n      0x24\n        /* \"#utility.yul\":1909:1910   */\n      0x00\n        /* \"#utility.yul\":1902:1917   */\n      revert\n        /* \"#utility.yul\":1929:2210   */\n    tag_46:\n        /* \"#utility.yul\":2012:2039   */\n      tag_99\n        /* \"#utility.yul\":2034:2038   */\n      dup3\n        /* \"#utility.yul\":2012:2039   */\n      tag_44\n      jump\t// in\n    tag_99:\n        /* \"#utility.yul\":2004:2010   */\n      dup2\n        /* \"#utility.yul\":2000:2040   */\n      add\n        /* \"#utility.yul\":2142:2148   */\n      dup2\n        /* \"#utility.yul\":2130:2140   */\n      dup2\n        /* \"#utility.yul\":2127:2149   */\n      lt\n        /* \"#utility.yul\":2106:2124   */\n      0xffffffffffffffff\n        /* \"#utility.yul\":2094:2104   */\n      dup3\n        /* \"#utility.yul\":2091:2125   */\n      gt\n        /* \"#utility.yul\":2088:2150   */\n      or\n        /* \"#utility.yul\":2085:2173   */\n      iszero\n      tag_100\n      jumpi\n        /* \"#utility.yul\":2153:2171   */\n      tag_101\n      tag_45\n      jump\t// in\n    tag_101:\n        /* \"#utility.yul\":2085:2173   */\n    tag_100:\n        /* \"#utility.yul\":2193:2203   */\n      dup1\n        /* \"#utility.yul\":2189:2191   */\n      0x40\n        /* \"#utility.yul\":2182:2204   */\n      mstore\n        /* \"#utility.yul\":1972:2210   */\n      pop\n        /* \"#utility.yul\":1929:2210   */\n      pop\n      pop\n      jump\t// out\n        /* \"#utility.yul\":2216:2345   */\n    tag_47:\n        /* \"#utility.yul\":2250:2256   */\n      0x00\n        /* \"#utility.yul\":2277:2297   */\n      tag_103\n      tag_39\n      jump\t// in\n    tag_103:\n        /* \"#utility.yul\":2267:2297   */\n      swap1\n      pop\n        /* \"#utility.yul\":2306:2339   */\n      tag_104\n        /* \"#utility.yul\":2334:2338   */\n      dup3\n        /* \"#utility.yul\":2326:2332   */\n      dup3\n        /* \"#utility.yul\":2306:2339   */\n      tag_46\n      jump\t// in\n    tag_104:\n        /* \"#utility.yul\":2216:2345   */\n      swap2\n      swap1\n      pop\n      jump\t// out\n        /* \"#utility.yul\":2351:2659   */\n    tag_48:\n        /* \"#utility.yul\":2413:2417   */\n      0x00\n        /* \"#utility.yul\":2503:2521   */\n      0xffffffffffffffff\n        /* \"#utility.yul\":2495:2501   */\n      dup3\n        /* \"#utility.yul\":2492:2522   */\n      gt\n        /* \"#utility.yul\":2489:2545   */\n      iszero\n      tag_106\n      jumpi\n        /* \"#utility.yul\":2525:2543   */\n      tag_107\n      tag_45\n      jump\t// in\n    tag_107:\n        /* \"#utility.yul\":2489:2545   */\n    tag_106:\n        /* \"#utility.yul\":2563:2592   */\n      tag_108\n        /* \"#utility.yul\":2585:2591   */\n      dup3\n        /* \"#utility.yul\":2563:2592   */\n      tag_44\n      jump\t// in\n    tag_108:\n        /* \"#utility.yul\":2555:2592   */\n      swap1\n      pop\n        /* \"#utility.yul\":2647:2651   */\n      0x20\n        /* \"#utility.yul\":2641:2645   */\n      dup2\n        /* \"#utility.yul\":2637:2652   */\n      add\n        /* \"#utility.yul\":2629:2652   */\n      swap1\n      pop\n        /* \"#utility.yul\":2351:2659   */\n      swap2\n      swap1\n      pop\n      jump\t// out\n        /* \"#utility.yul\":2665:2813   */\n    tag_49:\n        /* \"#utility.yul\":2763:2769   */\n      dup3\n        /* \"#utility.yul\":2758:2761   */\n      dup2\n        /* \"#utility.yul\":2753:2756   */\n      dup4\n        /* \"#utility.yul\":2740:2770   */\n      calldatacopy\n        /* \"#utility.yul\":2804:2805   */\n      0x00\n        /* \"#utility.yul\":2795:2801   */\n      dup4\n        /* \"#utility.yul\":2790:2793   */\n      dup4\n        /* \"#utility.yul\":2786:2802   */\n      add\n        /* \"#utility.yul\":2779:2806   */\n      mstore\n        /* \"#utility.yul\":2665:2813   */\n      pop\n      pop\n      pop\n      jump\t// out\n        /* \"#utility.yul\":2819:3244   */\n    tag_50:\n        /* \"#utility.yul\":2897:2902   */\n      0x00\n        /* \"#utility.yul\":2922:2988   */\n      tag_111\n        /* \"#utility.yul\":2938:2987   */\n      tag_112\n        /* \"#utility.yul\":2980:2986   */\n      dup5\n        /* \"#utility.yul\":2938:2987   */\n      tag_48\n      jump\t// in\n    tag_112:\n        /* \"#utility.yul\":2922:2988   */\n      tag_47\n      jump\t// in\n    tag_111:\n        /* \"#utility.yul\":2913:2988   */\n      swap1\n      pop\n        /* \"#utility.yul\":3011:3017   */\n      dup3\n        /* \"#utility.yul\":3004:3009   */\n      dup2\n        /* \"#utility.yul\":2997:3018   */\n      mstore\n        /* \"#utility.yul\":3049:3053   */\n      0x20\n        /* \"#utility.yul\":3042:3047   */\n      dup2\n        /* \"#utility.yul\":3038:3054   */\n      add\n        /* \"#utility.yul\":3087:3090   */\n      dup5\n        /* \"#utility.yul\":3078:3084   */\n      dup5\n        /* \"#utility.yul\":3073:3076   */\n      dup5\n        /* \"#utility.yul\":3069:3085   */\n      add\n        /* \"#utility.yul\":3066:3091   */\n      gt\n        /* \"#utility.yul\":3063:3175   */\n      iszero\n      tag_113\n      jumpi\n        /* \"#utility.yul\":3094:3173   */\n      tag_114\n      tag_43\n      jump\t// in\n    tag_114:\n        /* \"#utility.yul\":3063:3175   */\n    tag_113:\n        /* \"#utility.yul\":3184:3238   */\n      tag_115\n        /* \"#utility.yul\":3231:3237   */\n      dup5\n        /* \"#utility.yul\":3226:3229   */\n      dup3\n        /* \"#utility.yul\":3221:3224   */\n      dup6\n        /* \"#utility.yul\":3184:3238   */\n      tag_49\n      jump\t// in\n    tag_115:\n        /* \"#utility.yul\":2903:3244   */\n      pop\n        /* \"#utility.yul\":2819:3244   */\n      swap4\n      swap3\n      pop\n      pop\n      pop\n      jump\t// out\n        /* \"#utility.yul\":3264:3604   */\n    tag_51:\n        /* \"#utility.yul\":3320:3325   */\n      0x00\n        /* \"#utility.yul\":3369:3372   */\n      dup3\n        /* \"#utility.yul\":3362:3366   */\n      0x1f\n        /* \"#utility.yul\":3354:3360   */\n      dup4\n        /* \"#utility.yul\":3350:3367   */\n      add\n        /* \"#utility.yul\":3346:3373   */\n      slt\n        /* \"#utility.yul\":3336:3458   */\n      tag_117\n      jumpi\n        /* \"#utility.yul\":3377:3456   */\n      tag_118\n      tag_42\n      jump\t// in\n    tag_118:\n        /* \"#utility.yul\":3336:3458   */\n    tag_117:\n        /* \"#utility.yul\":3494:3500   */\n      dup2\n        /* \"#utility.yul\":3481:3501   */\n      calldataload\n        /* \"#utility.yul\":3519:3598   */\n      tag_119\n        /* \"#utility.yul\":3594:3597   */\n      dup5\n        /* \"#utility.yul\":3586:3592   */\n      dup3\n        /* \"#utility.yul\":3579:3583   */\n      0x20\n        /* \"#utility.yul\":3571:3577   */\n      dup7\n        /* \"#utility.yul\":3567:3584   */\n      add\n        /* \"#utility.yul\":3519:3598   */\n      tag_50\n      jump\t// in\n    tag_119:\n        /* \"#utility.yul\":3510:3598   */\n      swap2\n      pop\n        /* \"#utility.yul\":3326:3604   */\n      pop\n        /* \"#utility.yul\":3264:3604   */\n      swap3\n      swap2\n      pop\n      pop\n      jump\t// out\n        /* \"#utility.yul\":3610:4119   */\n    tag_11:\n        /* \"#utility.yul\":3679:3685   */\n      0x00\n        /* \"#utility.yul\":3728:3730   */\n      0x20\n        /* \"#utility.yul\":3716:3725   */\n      dup3\n        /* \"#utility.yul\":3707:3714   */\n      dup5\n        /* \"#utility.yul\":3703:3726   */\n      sub\n        /* \"#utility.yul\":3699:3731   */\n      slt\n        /* \"#utility.yul\":3696:3815   */\n      iszero\n      tag_121\n      jumpi\n        /* \"#utility.yul\":3734:3813   */\n      tag_122\n      tag_40\n      jump\t// in\n    tag_122:\n        /* \"#utility.yul\":3696:3815   */\n    tag_121:\n        /* \"#utility.yul\":3882:3883   */\n      0x00\n        /* \"#utility.yul\":3871:3880   */\n      dup3\n        /* \"#utility.yul\":3867:3884   */\n      add\n        /* \"#utility.yul\":3854:3885   */\n      calldataload\n        /* \"#utility.yul\":3912:3930   */\n      0xffffffffffffffff\n        /* \"#utility.yul\":3904:3910   */\n      dup2\n        /* \"#utility.yul\":3901:3931   */\n      gt\n        /* \"#utility.yul\":3898:4015   */\n      iszero\n      tag_123\n      jumpi\n        /* \"#utility.yul\":3934:4013   */\n      tag_124\n      tag_41\n      jump\t// in\n    tag_124:\n        /* \"#utility.yul\":3898:4015   */\n    tag_123:\n        /* \"#utility.yul\":4039:4102   */\n      tag_125\n        /* \"#utility.yul\":4094:4101   */\n      dup5\n        /* \"#utility.yul\":4085:4091   */\n      dup3\n        /* \"#utility.yul\":4074:4083   */\n      dup6\n        /* \"#utility.yul\":4070:4092   */\n      add\n        /* \"#utility.yul\":4039:4102   */\n      tag_51\n      jump\t// in\n    tag_125:\n        /* \"#utility.yul\":4029:4102   */\n      swap2\n      pop\n        /* \"#utility.yul\":3825:4112   */\n      pop\n        /* \"#utility.yul\":3610:4119   */\n      swap3\n      swap2\n      pop\n      pop\n      jump\t// out\n        /* \"#utility.yul\":4125:4224   */\n    tag_52:\n        /* \"#utility.yul\":4177:4183   */\n      0x00\n        /* \"#utility.yul\":4211:4216   */\n      dup2\n        /* \"#utility.yul\":4205:4217   */\n      mload\n        /* \"#utility.yul\":4195:4217   */\n      swap1\n      pop\n        /* \"#utility.yul\":4125:4224   */\n      swap2\n      swap1\n      pop\n      jump\t// out\n        /* \"#utility.yul\":4230:4389   */\n    tag_53:\n        /* \"#utility.yul\":4304:4315   */\n      0x00\n        /* \"#utility.yul\":4338:4344   */\n      dup3\n        /* \"#utility.yul\":4333:4336   */\n      dup3\n        /* \"#utility.yul\":4326:4345   */\n      mstore\n        /* \"#utility.yul\":4378:4382   */\n      0x20\n        /* \"#utility.yul\":4373:4376   */\n      dup3\n        /* \"#utility.yul\":4369:4383   */\n      add\n        /* \"#utility.yul\":4354:4383   */\n      swap1\n      pop\n        /* \"#utility.yul\":4230:4389   */\n      swap3\n      swap2\n      pop\n      pop\n      jump\t// out\n        /* \"#utility.yul\":4395:4534   */\n    tag_54:\n        /* \"#utility.yul\":4484:4490   */\n      dup3\n        /* \"#utility.yul\":4479:4482   */\n      dup2\n        /* \"#utility.yul\":4474:4477   */\n      dup4\n        /* \"#utility.yul\":4468:4491   */\n      mcopy\n        /* \"#utility.yul\":4525:4526   */\n      0x00\n        /* \"#utility.yul\":4516:4522   */\n      dup4\n        /* \"#utility.yul\":4511:4514   */\n      dup4\n        /* \"#utility.yul\":4507:4523   */\n      add\n        /* \"#utility.yul\":4500:4527   */\n      mstore\n        /* \"#utility.yul\":4395:4534   */\n      pop\n      pop\n      pop\n      jump\t// out\n        /* \"#utility.yul\":4540:4897   */\n    tag_55:\n        /* \"#utility.yul\":4618:4621   */\n      0x00\n        /* \"#utility.yul\":4646:4685   */\n      tag_130\n        /* \"#utility.yul\":4679:4684   */\n      dup3\n        /* \"#utility.yul\":4646:4685   */\n      tag_52\n      jump\t// in\n    tag_130:\n        /* \"#utility.yul\":4701:4762   */\n      tag_131\n        /* \"#utility.yul\":4755:4761   */\n      dup2\n        /* \"#utility.yul\":4750:4753   */\n      dup6\n        /* \"#utility.yul\":4701:4762   */\n      tag_53\n      jump\t// in\n    tag_131:\n        /* \"#utility.yul\":4694:4762   */\n      swap4\n      pop\n        /* \"#utility.yul\":4771:4836   */\n      tag_132\n        /* \"#utility.yul\":4829:4835   */\n      dup2\n        /* \"#utility.yul\":4824:4827   */\n      dup6\n        /* \"#utility.yul\":4817:4821   */\n      0x20\n        /* \"#utility.yul\":4810:4815   */\n      dup7\n        /* \"#utility.yul\":4806:4822   */\n      add\n        /* \"#utility.yul\":4771:4836   */\n      tag_54\n      jump\t// in\n    tag_132:\n        /* \"#utility.yul\":4861:4890   */\n      tag_133\n        /* \"#utility.yul\":4883:4889   */\n      dup2\n        /* \"#utility.yul\":4861:4890   */\n      tag_44\n      jump\t// in\n    tag_133:\n        /* \"#utility.yul\":4856:4859   */\n      dup5\n        /* \"#utility.yul\":4852:4891   */\n      add\n        /* \"#utility.yul\":4845:4891   */\n      swap2\n      pop\n        /* \"#utility.yul\":4622:4897   */\n      pop\n        /* \"#utility.yul\":4540:4897   */\n      swap3\n      swap2\n      pop\n      pop\n      jump\t// out\n        /* \"#utility.yul\":4903:4980   */\n    tag_56:\n        /* \"#utility.yul\":4940:4947   */\n      0x00\n        /* \"#utility.yul\":4969:4974   */\n      dup2\n        /* \"#utility.yul\":4958:4974   */\n      swap1\n      pop\n        /* \"#utility.yul\":4903:4980   */\n      swap2\n      swap1\n      pop\n      jump\t// out\n        /* \"#utility.yul\":4986:5094   */\n    tag_57:\n        /* \"#utility.yul\":5063:5087   */\n      tag_136\n        /* \"#utility.yul\":5081:5086   */\n      dup2\n        /* \"#utility.yul\":5063:5087   */\n      tag_56\n      jump\t// in\n    tag_136:\n        /* \"#utility.yul\":5058:5061   */\n      dup3\n        /* \"#utility.yul\":5051:5088   */\n      mstore\n        /* \"#utility.yul\":4986:5094   */\n      pop\n      pop\n      jump\t// out\n        /* \"#utility.yul\":5100:5280   */\n    tag_26:\n        /* \"#utility.yul\":5148:5225   */\n      0x4e487b7100000000000000000000000000000000000000000000000000000000\n        /* \"#utility.yul\":5145:5146   */\n      0x00\n        /* \"#utility.yul\":5138:5226   */\n      mstore\n        /* \"#utility.yul\":5245:5249   */\n      0x21\n        /* \"#utility.yul\":5242:5243   */\n      0x04\n        /* \"#utility.yul\":5235:5250   */\n      mstore\n        /* \"#utility.yul\":5269:5273   */\n      0x24\n        /* \"#utility.yul\":5266:5267   */\n      0x00\n        /* \"#utility.yul\":5259:5274   */\n      revert\n        /* \"#utility.yul\":5286:5410   */\n    tag_58:\n        /* \"#utility.yul\":5378:5379   */\n      0x04\n        /* \"#utility.yul\":5371:5376   */\n      dup2\n        /* \"#utility.yul\":5368:5380   */\n      lt\n        /* \"#utility.yul\":5358:5404   */\n      tag_139\n      jumpi\n        /* \"#utility.yul\":5384:5402   */\n      tag_140\n      tag_26\n      jump\t// in\n    tag_140:\n        /* \"#utility.yul\":5358:5404   */\n    tag_139:\n        /* \"#utility.yul\":5286:5410   */\n      pop\n      jump\t// out\n        /* \"#utility.yul\":5416:5565   */\n    tag_59:\n        /* \"#utility.yul\":5472:5479   */\n      0x00\n        /* \"#utility.yul\":5501:5506   */\n      dup2\n        /* \"#utility.yul\":5490:5506   */\n      swap1\n      pop\n        /* \"#utility.yul\":5507:5559   */\n      tag_142\n        /* \"#utility.yul\":5553:5558   */\n      dup3\n        /* \"#utility.yul\":5507:5559   */\n      tag_58\n      jump\t// in\n    tag_142:\n        /* \"#utility.yul\":5416:5565   */\n      swap2\n      swap1\n      pop\n      jump\t// out\n        /* \"#utility.yul\":5571:5720   */\n    tag_60:\n        /* \"#utility.yul\":5638:5647   */\n      0x00\n        /* \"#utility.yul\":5671:5714   */\n      tag_144\n        /* \"#utility.yul\":5708:5713   */\n      dup3\n        /* \"#utility.yul\":5671:5714   */\n      tag_59\n      jump\t// in\n    tag_144:\n        /* \"#utility.yul\":5658:5714   */\n      swap1\n      pop\n        /* \"#utility.yul\":5571:5720   */\n      swap2\n      swap1\n      pop\n      jump\t// out\n        /* \"#utility.yul\":5726:5881   */\n    tag_61:\n        /* \"#utility.yul\":5820:5874   */\n      tag_146\n        /* \"#utility.yul\":5868:5873   */\n      dup2\n        /* \"#utility.yul\":5820:5874   */\n      tag_60\n      jump\t// in\n    tag_146:\n        /* \"#utility.yul\":5815:5818   */\n      dup3\n        /* \"#utility.yul\":5808:5875   */\n      mstore\n        /* \"#utility.yul\":5726:5881   */\n      pop\n      pop\n      jump\t// out\n        /* \"#utility.yul\":5887:5977   */\n    tag_62:\n        /* \"#utility.yul\":5921:5928   */\n      0x00\n        /* \"#utility.yul\":5964:5969   */\n      dup2\n        /* \"#utility.yul\":5957:5970   */\n      iszero\n        /* \"#utility.yul\":5950:5971   */\n      iszero\n        /* \"#utility.yul\":5939:5971   */\n      swap1\n      pop\n        /* \"#utility.yul\":5887:5977   */\n      swap2\n      swap1\n      pop\n      jump\t// out\n        /* \"#utility.yul\":5983:6082   */\n    tag_63:\n        /* \"#utility.yul\":6054:6075   */\n      tag_149\n        /* \"#utility.yul\":6069:6074   */\n      dup2\n        /* \"#utility.yul\":6054:6075   */\n      tag_62\n      jump\t// in\n    tag_149:\n        /* \"#utility.yul\":6049:6052   */\n      dup3\n        /* \"#utility.yul\":6042:6076   */\n      mstore\n        /* \"#utility.yul\":5983:6082   */\n      pop\n      pop\n      jump\t// out\n        /* \"#utility.yul\":6176:7695   */\n    tag_64:\n        /* \"#utility.yul\":6315:6318   */\n      0x00\n        /* \"#utility.yul\":6351:6355   */\n      0xc0\n        /* \"#utility.yul\":6346:6349   */\n      dup4\n        /* \"#utility.yul\":6342:6356   */\n      add\n        /* \"#utility.yul\":6446:6450   */\n      0x00\n        /* \"#utility.yul\":6439:6444   */\n      dup4\n        /* \"#utility.yul\":6435:6451   */\n      add\n        /* \"#utility.yul\":6429:6452   */\n      mload\n        /* \"#utility.yul\":6499:6502   */\n      dup5\n        /* \"#utility.yul\":6493:6497   */\n      dup3\n        /* \"#utility.yul\":6489:6503   */\n      sub\n        /* \"#utility.yul\":6482:6486   */\n      0x00\n        /* \"#utility.yul\":6477:6480   */\n      dup7\n        /* \"#utility.yul\":6473:6487   */\n      add\n        /* \"#utility.yul\":6466:6504   */\n      mstore\n        /* \"#utility.yul\":6525:6598   */\n      tag_151\n        /* \"#utility.yul\":6593:6597   */\n      dup3\n        /* \"#utility.yul\":6579:6591   */\n      dup3\n        /* \"#utility.yul\":6525:6598   */\n      tag_55\n      jump\t// in\n    tag_151:\n        /* \"#utility.yul\":6517:6598   */\n      swap2\n      pop\n        /* \"#utility.yul\":6366:6609   */\n      pop\n        /* \"#utility.yul\":6705:6709   */\n      0x20\n        /* \"#utility.yul\":6698:6703   */\n      dup4\n        /* \"#utility.yul\":6694:6710   */\n      add\n        /* \"#utility.yul\":6688:6711   */\n      mload\n        /* \"#utility.yul\":6758:6761   */\n      dup5\n        /* \"#utility.yul\":6752:6756   */\n      dup3\n        /* \"#utility.yul\":6748:6762   */\n      sub\n        /* \"#utility.yul\":6741:6745   */\n      0x20\n        /* \"#utility.yul\":6736:6739   */\n      dup7\n        /* \"#utility.yul\":6732:6746   */\n      add\n        /* \"#utility.yul\":6725:6763   */\n      mstore\n        /* \"#utility.yul\":6784:6857   */\n      tag_152\n        /* \"#utility.yul\":6852:6856   */\n      dup3\n        /* \"#utility.yul\":6838:6850   */\n      dup3\n        /* \"#utility.yul\":6784:6857   */\n      tag_55\n      jump\t// in\n    tag_152:\n        /* \"#utility.yul\":6776:6857   */\n      swap2\n      pop\n        /* \"#utility.yul\":6619:6868   */\n      pop\n        /* \"#utility.yul\":6964:6968   */\n      0x40\n        /* \"#utility.yul\":6957:6962   */\n      dup4\n        /* \"#utility.yul\":6953:6969   */\n      add\n        /* \"#utility.yul\":6947:6970   */\n      mload\n        /* \"#utility.yul\":7017:7020   */\n      dup5\n        /* \"#utility.yul\":7011:7015   */\n      dup3\n        /* \"#utility.yul\":7007:7021   */\n      sub\n        /* \"#utility.yul\":7000:7004   */\n      0x40\n        /* \"#utility.yul\":6995:6998   */\n      dup7\n        /* \"#utility.yul\":6991:7005   */\n      add\n        /* \"#utility.yul\":6984:7022   */\n      mstore\n        /* \"#utility.yul\":7043:7116   */\n      tag_153\n        /* \"#utility.yul\":7111:7115   */\n      dup3\n        /* \"#utility.yul\":7097:7109   */\n      dup3\n        /* \"#utility.yul\":7043:7116   */\n      tag_55\n      jump\t// in\n    tag_153:\n        /* \"#utility.yul\":7035:7116   */\n      swap2\n      pop\n        /* \"#utility.yul\":6878:7127   */\n      pop\n        /* \"#utility.yul\":7214:7218   */\n      0x60\n        /* \"#utility.yul\":7207:7212   */\n      dup4\n        /* \"#utility.yul\":7203:7219   */\n      add\n        /* \"#utility.yul\":7197:7220   */\n      mload\n        /* \"#utility.yul\":7233:7296   */\n      tag_154\n        /* \"#utility.yul\":7290:7294   */\n      0x60\n        /* \"#utility.yul\":7285:7288   */\n      dup7\n        /* \"#utility.yul\":7281:7295   */\n      add\n        /* \"#utility.yul\":7267:7279   */\n      dup3\n        /* \"#utility.yul\":7233:7296   */\n      tag_57\n      jump\t// in\n    tag_154:\n        /* \"#utility.yul\":7137:7306   */\n      pop\n        /* \"#utility.yul\":7390:7394   */\n      0x80\n        /* \"#utility.yul\":7383:7388   */\n      dup4\n        /* \"#utility.yul\":7379:7395   */\n      add\n        /* \"#utility.yul\":7373:7396   */\n      mload\n        /* \"#utility.yul\":7409:7489   */\n      tag_155\n        /* \"#utility.yul\":7483:7487   */\n      0x80\n        /* \"#utility.yul\":7478:7481   */\n      dup7\n        /* \"#utility.yul\":7474:7488   */\n      add\n        /* \"#utility.yul\":7460:7472   */\n      dup3\n        /* \"#utility.yul\":7409:7489   */\n      tag_61\n      jump\t// in\n    tag_155:\n        /* \"#utility.yul\":7316:7499   */\n      pop\n        /* \"#utility.yul\":7582:7586   */\n      0xa0\n        /* \"#utility.yul\":7575:7580   */\n      dup4\n        /* \"#utility.yul\":7571:7587   */\n      add\n        /* \"#utility.yul\":7565:7588   */\n      mload\n        /* \"#utility.yul\":7601:7658   */\n      tag_156\n        /* \"#utility.yul\":7652:7656   */\n      0xa0\n        /* \"#utility.yul\":7647:7650   */\n      dup7\n        /* \"#utility.yul\":7643:7657   */\n      add\n        /* \"#utility.yul\":7629:7641   */\n      dup3\n        /* \"#utility.yul\":7601:7658   */\n      tag_63\n      jump\t// in\n    tag_156:\n        /* \"#utility.yul\":7509:7668   */\n      pop\n        /* \"#utility.yul\":7685:7689   */\n      dup1\n        /* \"#utility.yul\":7678:7689   */\n      swap2\n      pop\n        /* \"#utility.yul\":6320:7695   */\n      pop\n        /* \"#utility.yul\":6176:7695   */\n      swap3\n      swap2\n      pop\n      pop\n      jump\t// out\n        /* \"#utility.yul\":7701:8114   */\n    tag_14:\n        /* \"#utility.yul\":7864:7868   */\n      0x00\n        /* \"#utility.yul\":7902:7904   */\n      0x20\n        /* \"#utility.yul\":7891:7900   */\n      dup3\n        /* \"#utility.yul\":7887:7905   */\n      add\n        /* \"#utility.yul\":7879:7905   */\n      swap1\n      pop\n        /* \"#utility.yul\":7951:7960   */\n      dup2\n        /* \"#utility.yul\":7945:7949   */\n      dup2\n        /* \"#utility.yul\":7941:7961   */\n      sub\n        /* \"#utility.yul\":7937:7938   */\n      0x00\n        /* \"#utility.yul\":7926:7935   */\n      dup4\n        /* \"#utility.yul\":7922:7939   */\n      add\n        /* \"#utility.yul\":7915:7962   */\n      mstore\n        /* \"#utility.yul\":7979:8107   */\n      tag_158\n        /* \"#utility.yul\":8102:8106   */\n      dup2\n        /* \"#utility.yul\":8093:8099   */\n      dup5\n        /* \"#utility.yul\":7979:8107   */\n      tag_64\n      jump\t// in\n    tag_158:\n        /* \"#utility.yul\":7971:8107   */\n      swap1\n      pop\n        /* \"#utility.yul\":7701:8114   */\n      swap3\n      swap2\n      pop\n      pop\n      jump\t// out\n        /* \"#utility.yul\":8120:8289   */\n    tag_65:\n        /* \"#utility.yul\":8204:8215   */\n      0x00\n        /* \"#utility.yul\":8238:8244   */\n      dup3\n        /* \"#utility.yul\":8233:8236   */\n      dup3\n        /* \"#utility.yul\":8226:8245   */\n      mstore\n        /* \"#utility.yul\":8278:8282   */\n      0x20\n        /* \"#utility.yul\":8273:8276   */\n      dup3\n        /* \"#utility.yul\":8269:8283   */\n      add\n        /* \"#utility.yul\":8254:8283   */\n      swap1\n      pop\n        /* \"#utility.yul\":8120:8289   */\n      swap3\n      swap2\n      pop\n      pop\n      jump\t// out\n        /* \"#utility.yul\":8295:8672   */\n    tag_66:\n        /* \"#utility.yul\":8383:8386   */\n      0x00\n        /* \"#utility.yul\":8411:8450   */\n      tag_161\n        /* \"#utility.yul\":8444:8449   */\n      dup3\n        /* \"#utility.yul\":8411:8450   */\n      tag_52\n      jump\t// in\n    tag_161:\n        /* \"#utility.yul\":8466:8537   */\n      tag_162\n        /* \"#utility.yul\":8530:8536   */\n      dup2\n        /* \"#utility.yul\":8525:8528   */\n      dup6\n        /* \"#utility.yul\":8466:8537   */\n      tag_65\n      jump\t// in\n    tag_162:\n        /* \"#utility.yul\":8459:8537   */\n      swap4\n      pop\n        /* \"#utility.yul\":8546:8611   */\n      tag_163\n        /* \"#utility.yul\":8604:8610   */\n      dup2\n        /* \"#utility.yul\":8599:8602   */\n      dup6\n        /* \"#utility.yul\":8592:8596   */\n      0x20\n        /* \"#utility.yul\":8585:8590   */\n      dup7\n        /* \"#utility.yul\":8581:8597   */\n      add\n        /* \"#utility.yul\":8546:8611   */\n      tag_54\n      jump\t// in\n    tag_163:\n        /* \"#utility.yul\":8636:8665   */\n      tag_164\n        /* \"#utility.yul\":8658:8664   */\n      dup2\n        /* \"#utility.yul\":8636:8665   */\n      tag_44\n      jump\t// in\n    tag_164:\n        /* \"#utility.yul\":8631:8634   */\n      dup5\n        /* \"#utility.yul\":8627:8666   */\n      add\n        /* \"#utility.yul\":8620:8666   */\n      swap2\n      pop\n        /* \"#utility.yul\":8387:8672   */\n      pop\n        /* \"#utility.yul\":8295:8672   */\n      swap3\n      swap2\n      pop\n      pop\n      jump\t// out\n        /* \"#utility.yul\":8678:8991   */\n    tag_19:\n        /* \"#utility.yul\":8791:8795   */\n      0x00\n        /* \"#utility.yul\":8829:8831   */\n      0x20\n        /* \"#utility.yul\":8818:8827   */\n      dup3\n        /* \"#utility.yul\":8814:8832   */\n      add\n        /* \"#utility.yul\":8806:8832   */\n      swap1\n      pop\n        /* \"#utility.yul\":8878:8887   */\n      dup2\n        /* \"#utility.yul\":8872:8876   */\n      dup2\n        /* \"#utility.yul\":8868:8888   */\n      sub\n        /* \"#utility.yul\":8864:8865   */\n      0x00\n        /* \"#utility.yul\":8853:8862   */\n      dup4\n        /* \"#utility.yul\":8849:8866   */\n      add\n        /* \"#utility.yul\":8842:8889   */\n      mstore\n        /* \"#utility.yul\":8906:8984   */\n      tag_166\n        /* \"#utility.yul\":8979:8983   */\n      dup2\n        /* \"#utility.yul\":8970:8976   */\n      dup5\n        /* \"#utility.yul\":8906:8984   */\n      tag_66\n      jump\t// in\n    tag_166:\n        /* \"#utility.yul\":8898:8984   */\n      swap1\n      pop\n        /* \"#utility.yul\":8678:8991   */\n      swap3\n      swap2\n      pop\n      pop\n      jump\t// out\n        /* \"#utility.yul\":8997:9431   */\n    tag_67:\n        /* \"#utility.yul\":9086:9091   */\n      0x00\n        /* \"#utility.yul\":9111:9177   */\n      tag_168\n        /* \"#utility.yul\":9127:9176   */\n      tag_169\n        /* \"#utility.yul\":9169:9175   */\n      dup5\n        /* \"#utility.yul\":9127:9176   */\n      tag_48\n      jump\t// in\n    tag_169:\n        /* \"#utility.yul\":9111:9177   */\n      tag_47\n      jump\t// in\n    tag_168:\n        /* \"#utility.yul\":9102:9177   */\n      swap1\n      pop\n        /* \"#utility.yul\":9200:9206   */\n      dup3\n        /* \"#utility.yul\":9193:9198   */\n      dup2\n        /* \"#utility.yul\":9186:9207   */\n      mstore\n        /* \"#utility.yul\":9238:9242   */\n      0x20\n        /* \"#utility.yul\":9231:9236   */\n      dup2\n        /* \"#utility.yul\":9227:9243   */\n      add\n        /* \"#utility.yul\":9276:9279   */\n      dup5\n        /* \"#utility.yul\":9267:9273   */\n      dup5\n        /* \"#utility.yul\":9262:9265   */\n      dup5\n        /* \"#utility.yul\":9258:9274   */\n      add\n        /* \"#utility.yul\":9255:9280   */\n      gt\n        /* \"#utility.yul\":9252:9364   */\n      iszero\n      tag_170\n      jumpi\n        /* \"#utility.yul\":9283:9362   */\n      tag_171\n      tag_43\n      jump\t// in\n    tag_171:\n        /* \"#utility.yul\":9252:9364   */\n    tag_170:\n        /* \"#utility.yul\":9373:9425   */\n      tag_172\n        /* \"#utility.yul\":9418:9424   */\n      dup5\n        /* \"#utility.yul\":9413:9416   */\n      dup3\n        /* \"#utility.yul\":9408:9411   */\n      dup6\n        /* \"#utility.yul\":9373:9425   */\n      tag_54\n      jump\t// in\n    tag_172:\n        /* \"#utility.yul\":9092:9431   */\n      pop\n        /* \"#utility.yul\":8997:9431   */\n      swap4\n      swap3\n      pop\n      pop\n      pop\n      jump\t// out\n        /* \"#utility.yul\":9451:9806   */\n    tag_68:\n        /* \"#utility.yul\":9518:9523   */\n      0x00\n        /* \"#utility.yul\":9567:9570   */\n      dup3\n        /* \"#utility.yul\":9560:9564   */\n      0x1f\n        /* \"#utility.yul\":9552:9558   */\n      dup4\n        /* \"#utility.yul\":9548:9565   */\n      add\n        /* \"#utility.yul\":9544:9571   */\n      slt\n        /* \"#utility.yul\":9534:9656   */\n      tag_174\n      jumpi\n        /* \"#utility.yul\":9575:9654   */\n      tag_175\n      tag_42\n      jump\t// in\n    tag_175:\n        /* \"#utility.yul\":9534:9656   */\n    tag_174:\n        /* \"#utility.yul\":9685:9691   */\n      dup2\n        /* \"#utility.yul\":9679:9692   */\n      mload\n        /* \"#utility.yul\":9710:9800   */\n      tag_176\n        /* \"#utility.yul\":9796:9799   */\n      dup5\n        /* \"#utility.yul\":9788:9794   */\n      dup3\n        /* \"#utility.yul\":9781:9785   */\n      0x20\n        /* \"#utility.yul\":9773:9779   */\n      dup7\n        /* \"#utility.yul\":9769:9786   */\n      add\n        /* \"#utility.yul\":9710:9800   */\n      tag_67\n      jump\t// in\n    tag_176:\n        /* \"#utility.yul\":9701:9800   */\n      swap2\n      pop\n        /* \"#utility.yul\":9524:9806   */\n      pop\n        /* \"#utility.yul\":9451:9806   */\n      swap3\n      swap2\n      pop\n      pop\n      jump\t// out\n        /* \"#utility.yul\":9812:9934   */\n    tag_69:\n        /* \"#utility.yul\":9885:9909   */\n      tag_178\n        /* \"#utility.yul\":9903:9908   */\n      dup2\n        /* \"#utility.yul\":9885:9909   */\n      tag_56\n      jump\t// in\n    tag_178:\n        /* \"#utility.yul\":9878:9883   */\n      dup2\n        /* \"#utility.yul\":9875:9910   */\n      eq\n        /* \"#utility.yul\":9865:9928   */\n      tag_179\n      jumpi\n        /* \"#utility.yul\":9924:9925   */\n      0x00\n        /* \"#utility.yul\":9921:9922   */\n      0x00\n        /* \"#utility.yul\":9914:9926   */\n      revert\n        /* \"#utility.yul\":9865:9928   */\n    tag_179:\n        /* \"#utility.yul\":9812:9934   */\n      pop\n      jump\t// out\n        /* \"#utility.yul\":9940:10083   */\n    tag_70:\n        /* \"#utility.yul\":9997:10002   */\n      0x00\n        /* \"#utility.yul\":10028:10034   */\n      dup2\n        /* \"#utility.yul\":10022:10035   */\n      mload\n        /* \"#utility.yul\":10013:10035   */\n      swap1\n      pop\n        /* \"#utility.yul\":10044:10077   */\n      tag_181\n        /* \"#utility.yul\":10071:10076   */\n      dup2\n        /* \"#utility.yul\":10044:10077   */\n      tag_69\n      jump\t// in\n    tag_181:\n        /* \"#utility.yul\":9940:10083   */\n      swap3\n      swap2\n      pop\n      pop\n      jump\t// out\n        /* \"#utility.yul\":10089:10207   */\n    tag_71:\n        /* \"#utility.yul\":10181:10182   */\n      0x04\n        /* \"#utility.yul\":10174:10179   */\n      dup2\n        /* \"#utility.yul\":10171:10183   */\n      lt\n        /* \"#utility.yul\":10161:10201   */\n      tag_183\n      jumpi\n        /* \"#utility.yul\":10197:10198   */\n      0x00\n        /* \"#utility.yul\":10194:10195   */\n      0x00\n        /* \"#utility.yul\":10187:10199   */\n      revert\n        /* \"#utility.yul\":10161:10201   */\n    tag_183:\n        /* \"#utility.yul\":10089:10207   */\n      pop\n      jump\t// out\n        /* \"#utility.yul\":10213:10394   */\n    tag_72:\n        /* \"#utility.yul\":10289:10294   */\n      0x00\n        /* \"#utility.yul\":10320:10326   */\n      dup2\n        /* \"#utility.yul\":10314:10327   */\n      mload\n        /* \"#utility.yul\":10305:10327   */\n      swap1\n      pop\n        /* \"#utility.yul\":10336:10388   */\n      tag_185\n        /* \"#utility.yul\":10382:10387   */\n      dup2\n        /* \"#utility.yul\":10336:10388   */\n      tag_71\n      jump\t// in\n    tag_185:\n        /* \"#utility.yul\":10213:10394   */\n      swap3\n      swap2\n      pop\n      pop\n      jump\t// out\n        /* \"#utility.yul\":10400:10496   */\n    tag_73:\n        /* \"#utility.yul\":10437:10444   */\n      0x00\n        /* \"#utility.yul\":10466:10490   */\n      tag_187\n        /* \"#utility.yul\":10484:10489   */\n      dup3\n        /* \"#utility.yul\":10466:10490   */\n      tag_33\n      jump\t// in\n    tag_187:\n        /* \"#utility.yul\":10455:10490   */\n      swap1\n      pop\n        /* \"#utility.yul\":10400:10496   */\n      swap2\n      swap1\n      pop\n      jump\t// out\n        /* \"#utility.yul\":10502:10624   */\n    tag_74:\n        /* \"#utility.yul\":10575:10599   */\n      tag_189\n        /* \"#utility.yul\":10593:10598   */\n      dup2\n        /* \"#utility.yul\":10575:10599   */\n      tag_73\n      jump\t// in\n    tag_189:\n        /* \"#utility.yul\":10568:10573   */\n      dup2\n        /* \"#utility.yul\":10565:10600   */\n      eq\n        /* \"#utility.yul\":10555:10618   */\n      tag_190\n      jumpi\n        /* \"#utility.yul\":10614:10615   */\n      0x00\n        /* \"#utility.yul\":10611:10612   */\n      0x00\n        /* \"#utility.yul\":10604:10616   */\n      revert\n        /* \"#utility.yul\":10555:10618   */\n    tag_190:\n        /* \"#utility.yul\":10502:10624   */\n      pop\n      jump\t// out\n        /* \"#utility.yul\":10630:10773   */\n    tag_75:\n        /* \"#utility.yul\":10687:10692   */\n      0x00\n        /* \"#utility.yul\":10718:10724   */\n      dup2\n        /* \"#utility.yul\":10712:10725   */\n      mload\n        /* \"#utility.yul\":10703:10725   */\n      swap1\n      pop\n        /* \"#utility.yul\":10734:10767   */\n      tag_192\n        /* \"#utility.yul\":10761:10766   */\n      dup2\n        /* \"#utility.yul\":10734:10767   */\n      tag_74\n      jump\t// in\n    tag_192:\n        /* \"#utility.yul\":10630:10773   */\n      swap3\n      swap2\n      pop\n      pop\n      jump\t// out\n        /* \"#utility.yul\":10779:12470   */\n    tag_23:\n        /* \"#utility.yul\":10943:10949   */\n      0x00\n        /* \"#utility.yul\":10951:10957   */\n      0x00\n        /* \"#utility.yul\":10959:10965   */\n      0x00\n        /* \"#utility.yul\":10967:10973   */\n      0x00\n        /* \"#utility.yul\":10975:10981   */\n      0x00\n        /* \"#utility.yul\":10983:10989   */\n      0x00\n        /* \"#utility.yul\":11032:11035   */\n      0xc0\n        /* \"#utility.yul\":11020:11029   */\n      dup8\n        /* \"#utility.yul\":11011:11018   */\n      dup10\n        /* \"#utility.yul\":11007:11030   */\n      sub\n        /* \"#utility.yul\":11003:11036   */\n      slt\n        /* \"#utility.yul\":11000:11120   */\n      iszero\n      tag_194\n      jumpi\n        /* \"#utility.yul\":11039:11118   */\n      tag_195\n      tag_40\n      jump\t// in\n    tag_195:\n        /* \"#utility.yul\":11000:11120   */\n    tag_194:\n        /* \"#utility.yul\":11180:11181   */\n      0x00\n        /* \"#utility.yul\":11169:11178   */\n      dup8\n        /* \"#utility.yul\":11165:11182   */\n      add\n        /* \"#utility.yul\":11159:11183   */\n      mload\n        /* \"#utility.yul\":11210:11228   */\n      0xffffffffffffffff\n        /* \"#utility.yul\":11202:11208   */\n      dup2\n        /* \"#utility.yul\":11199:11229   */\n      gt\n        /* \"#utility.yul\":11196:11313   */\n      iszero\n      tag_196\n      jumpi\n        /* \"#utility.yul\":11232:11311   */\n      tag_197\n      tag_41\n      jump\t// in\n    tag_197:\n        /* \"#utility.yul\":11196:11313   */\n    tag_196:\n        /* \"#utility.yul\":11337:11411   */\n      tag_198\n        /* \"#utility.yul\":11403:11410   */\n      dup10\n        /* \"#utility.yul\":11394:11400   */\n      dup3\n        /* \"#utility.yul\":11383:11392   */\n      dup11\n        /* \"#utility.yul\":11379:11401   */\n      add\n        /* \"#utility.yul\":11337:11411   */\n      tag_68\n      jump\t// in\n    tag_198:\n        /* \"#utility.yul\":11327:11411   */\n      swap7\n      pop\n        /* \"#utility.yul\":11130:11421   */\n      pop\n        /* \"#utility.yul\":11481:11483   */\n      0x20\n        /* \"#utility.yul\":11470:11479   */\n      dup8\n        /* \"#utility.yul\":11466:11484   */\n      add\n        /* \"#utility.yul\":11460:11485   */\n      mload\n        /* \"#utility.yul\":11512:11530   */\n      0xffffffffffffffff\n        /* \"#utility.yul\":11504:11510   */\n      dup2\n        /* \"#utility.yul\":11501:11531   */\n      gt\n        /* \"#utility.yul\":11498:11615   */\n      iszero\n      tag_199\n      jumpi\n        /* \"#utility.yul\":11534:11613   */\n      tag_200\n      tag_41\n      jump\t// in\n    tag_200:\n        /* \"#utility.yul\":11498:11615   */\n    tag_199:\n        /* \"#utility.yul\":11639:11713   */\n      tag_201\n        /* \"#utility.yul\":11705:11712   */\n      dup10\n        /* \"#utility.yul\":11696:11702   */\n      dup3\n        /* \"#utility.yul\":11685:11694   */\n      dup11\n        /* \"#utility.yul\":11681:11703   */\n      add\n        /* \"#utility.yul\":11639:11713   */\n      tag_68\n      jump\t// in\n    tag_201:\n        /* \"#utility.yul\":11629:11713   */\n      swap6\n      pop\n        /* \"#utility.yul\":11431:11723   */\n      pop\n        /* \"#utility.yul\":11783:11785   */\n      0x40\n        /* \"#utility.yul\":11772:11781   */\n      dup8\n        /* \"#utility.yul\":11768:11786   */\n      add\n        /* \"#utility.yul\":11762:11787   */\n      mload\n        /* \"#utility.yul\":11814:11832   */\n      0xffffffffffffffff\n        /* \"#utility.yul\":11806:11812   */\n      dup2\n        /* \"#utility.yul\":11803:11833   */\n      gt\n        /* \"#utility.yul\":11800:11917   */\n      iszero\n      tag_202\n      jumpi\n        /* \"#utility.yul\":11836:11915   */\n      tag_203\n      tag_41\n      jump\t// in\n    tag_203:\n        /* \"#utility.yul\":11800:11917   */\n    tag_202:\n        /* \"#utility.yul\":11941:12015   */\n      tag_204\n        /* \"#utility.yul\":12007:12014   */\n      dup10\n        /* \"#utility.yul\":11998:12004   */\n      dup3\n        /* \"#utility.yul\":11987:11996   */\n      dup11\n        /* \"#utility.yul\":11983:12005   */\n      add\n        /* \"#utility.yul\":11941:12015   */\n      tag_68\n      jump\t// in\n    tag_204:\n        /* \"#utility.yul\":11931:12015   */\n      swap5\n      pop\n        /* \"#utility.yul\":11733:12025   */\n      pop\n        /* \"#utility.yul\":12064:12066   */\n      0x60\n        /* \"#utility.yul\":12090:12154   */\n      tag_205\n        /* \"#utility.yul\":12146:12153   */\n      dup10\n        /* \"#utility.yul\":12137:12143   */\n      dup3\n        /* \"#utility.yul\":12126:12135   */\n      dup11\n        /* \"#utility.yul\":12122:12144   */\n      add\n        /* \"#utility.yul\":12090:12154   */\n      tag_70\n      jump\t// in\n    tag_205:\n        /* \"#utility.yul\":12080:12154   */\n      swap4\n      pop\n        /* \"#utility.yul\":12035:12164   */\n      pop\n        /* \"#utility.yul\":12203:12206   */\n      0x80\n        /* \"#utility.yul\":12230:12313   */\n      tag_206\n        /* \"#utility.yul\":12305:12312   */\n      dup10\n        /* \"#utility.yul\":12296:12302   */\n      dup3\n        /* \"#utility.yul\":12285:12294   */\n      dup11\n        /* \"#utility.yul\":12281:12303   */\n      add\n        /* \"#utility.yul\":12230:12313   */\n      tag_72\n      jump\t// in\n    tag_206:\n        /* \"#utility.yul\":12220:12313   */\n      swap3\n      pop\n        /* \"#utility.yul\":12174:12323   */\n      pop\n        /* \"#utility.yul\":12362:12365   */\n      0xa0\n        /* \"#utility.yul\":12389:12453   */\n      tag_207\n        /* \"#utility.yul\":12445:12452   */\n      dup10\n        /* \"#utility.yul\":12436:12442   */\n      dup3\n        /* \"#utility.yul\":12425:12434   */\n      dup11\n        /* \"#utility.yul\":12421:12443   */\n      add\n        /* \"#utility.yul\":12389:12453   */\n      tag_75\n      jump\t// in\n    tag_207:\n        /* \"#utility.yul\":12379:12453   */\n      swap2\n      pop\n        /* \"#utility.yul\":12333:12463   */\n      pop\n        /* \"#utility.yul\":10779:12470   */\n      swap3\n      swap6\n      pop\n      swap3\n      swap6\n      pop\n      swap3\n      swap6\n      jump\t// out\n\n    auxdata: 0xa26469706673582212201c4ed4a04b166470b74733045b212cf423be92f162fa71e41239a61f4f4d91ab64736f6c634300081e0033\n}\n",
				"bytecode": {
					"linkReferences": {},
					"object": "608060405234801561000f575f5ffd5b50604051610979380380610979833981810160405281019061003191906100d4565b805f5f6101000a81548173ffffffffffffffffffffffffffffffffffffffff021916908373ffffffffffffffffffffffffffffffffffffffff160217905550506100ff565b5f5ffd5b5f73ffffffffffffffffffffffffffffffffffffffff82169050919050565b5f6100a38261007a565b9050919050565b6100b381610099565b81146100bd575f5ffd5b50565b5f815190506100ce816100aa565b92915050565b5f602082840312156100e9576100e8610076565b5b5f6100f6848285016100c0565b91505092915050565b61086d8061010c5f395ff3fe608060405234801561000f575f5ffd5b5060043610610034575f3560e01c80637b10399914610038578063bb3670ab14610056575b5f5ffd5b610040610086565b60405161004d9190610296565b60405180910390f35b610070600480360381019061006b91906103fc565b6100aa565b60405161007d91906105dc565b60405180910390f35b5f5f9054906101000a900473ffffffffffffffffffffffffffffffffffffffff1681565b6100b26101d5565b5f5f5f5f5f5f5f9054906101000a900473ffffffffffffffffffffffffffffffffffffffff1673ffffffffffffffffffffffffffffffffffffffff1663d091187f886040518263ffffffff1660e01b81526004016101109190610644565b5f60405180830381865afa15801561012a573d5f5f3e3d5ffd5b505050506040513d5f823e3d601f19601f82011682018060405250810190610152919061075a565b50945094509450945094505f5f6003811115610171576101706104bb565b5b826003811115610184576101836104bb565b5b1490506040518060c001604052808781526020018681526020018581526020018481526020018360038111156101bd576101bc6104bb565b5b81526020018215158152509650505050505050919050565b6040518060c001604052806060815260200160608152602001606081526020015f81526020015f600381111561020e5761020d6104bb565b5b81526020015f151581525090565b5f73ffffffffffffffffffffffffffffffffffffffff82169050919050565b5f819050919050565b5f61025e6102596102548461021c565b61023b565b61021c565b9050919050565b5f61026f82610244565b9050919050565b5f61028082610265565b9050919050565b61029081610276565b82525050565b5f6020820190506102a95f830184610287565b92915050565b5f604051905090565b5f5ffd5b5f5ffd5b5f5ffd5b5f5ffd5b5f601f19601f8301169050919050565b7f4e487b71000000000000000000000000000000000000000000000000000000005f52604160045260245ffd5b61030e826102c8565b810181811067ffffffffffffffff8211171561032d5761032c6102d8565b5b80604052505050565b5f61033f6102af565b905061034b8282610305565b919050565b5f67ffffffffffffffff82111561036a576103696102d8565b5b610373826102c8565b9050602081019050919050565b828183375f83830152505050565b5f6103a061039b84610350565b610336565b9050828152602081018484840111156103bc576103bb6102c4565b5b6103c7848285610380565b509392505050565b5f82601f8301126103e3576103e26102c0565b5b81356103f384826020860161038e565b91505092915050565b5f60208284031215610411576104106102b8565b5b5f82013567ffffffffffffffff81111561042e5761042d6102bc565b5b61043a848285016103cf565b91505092915050565b5f81519050919050565b5f82825260208201905092915050565b8281835e5f83830152505050565b5f61047582610443565b61047f818561044d565b935061048f81856020860161045d565b610498816102c8565b840191505092915050565b5f819050919050565b6104b5816104a3565b82525050565b7f4e487b71000000000000000000000000000000000000000000000000000000005f52602160045260245ffd5b600481106104f9576104f86104bb565b5b50565b5f819050610509826104e8565b919050565b5f610518826104fc565b9050919050565b6105288161050e565b82525050565b5f8115159050919050565b6105428161052e565b82525050565b5f60c083015f8301518482035f860152610562828261046b565b9150506020830151848203602086015261057c828261046b565b91505060408301518482036040860152610596828261046b565b91505060608301516105ab60608601826104ac565b5060808301516105be608086018261051f565b5060a08301516105d160a0860182610539565b508091505092915050565b5f6020820190508181035f8301526105f48184610548565b905092915050565b5f82825260208201905092915050565b5f61061682610443565b61062081856105fc565b935061063081856020860161045d565b610639816102c8565b840191505092915050565b5f6020820190508181035f83015261065c818461060c565b905092915050565b5f61067661067184610350565b610336565b905082815260208101848484011115610692576106916102c4565b5b61069d84828561045d565b509392505050565b5f82601f8301126106b9576106b86102c0565b5b81516106c9848260208601610664565b91505092915050565b6106db816104a3565b81146106e5575f5ffd5b50565b5f815190506106f6816106d2565b92915050565b60048110610708575f5ffd5b50565b5f81519050610719816106fc565b92915050565b5f6107298261021c565b9050919050565b6107398161071f565b8114610743575f5ffd5b50565b5f8151905061075481610730565b92915050565b5f5f5f5f5f5f60c08789031215610774576107736102b8565b5b5f87015167ffffffffffffffff811115610791576107906102bc565b5b61079d89828a016106a5565b965050602087015167ffffffffffffffff8111156107be576107bd6102bc565b5b6107ca89828a016106a5565b955050604087015167ffffffffffffffff8111156107eb576107ea6102bc565b5b6107f789828a016106a5565b945050606061080889828a016106e8565b935050608061081989828a0161070b565b92505060a061082a89828a01610746565b915050929550929550929556fea26469706673582212201c4ed4a04b166470b74733045b212cf423be92f162fa71e41239a61f4f4d91ab64736f6c634300081e0033",
					"opcodes": "PUSH1 0x80 PUSH1 0x40 MSTORE CALLVALUE DUP1 ISZERO PUSH2 0xF JUMPI PUSH0 PUSH0 REVERT JUMPDEST POP PUSH1 0x40 MLOAD PUSH2 0x979 CODESIZE SUB DUP1 PUSH2 0x979 DUP4 CODECOPY DUP2 DUP2 ADD PUSH1 0x40 MSTORE DUP2 ADD SWAP1 PUSH2 0x31 SWAP2 SWAP1 PUSH2 0xD4 JUMP JUMPDEST DUP1 PUSH0 PUSH0 PUSH2 0x100 EXP DUP2 SLOAD DUP2 PUSH20 0xFFFFFFFFFFFFFFFFFFFFFFFFFFFFFFFFFFFFFFFF MUL NOT AND SWAP1 DUP4 PUSH20 0xFFFFFFFFFFFFFFFFFFFFFFFFFFFFFFFFFFFFFFFF AND MUL OR SWAP1 SSTORE POP POP PUSH2 0xFF JUMP JUMPDEST PUSH0 PUSH0 REVERT JUMPDEST PUSH0 PUSH20 0xFFFFFFFFFFFFFFFFFFFFFFFFFFFFFFFFFFFFFFFF DUP3 AND SWAP1 POP SWAP2 SWAP1 POP JUMP JUMPDEST PUSH0 PUSH2 0xA3 DUP3 PUSH2 0x7A JUMP JUMPDEST SWAP1 POP SWAP2 SWAP1 POP JUMP JUMPDEST PUSH2 0xB3 DUP2 PUSH2 0x99 JUMP JUMPDEST DUP2 EQ PUSH2 0xBD JUMPI PUSH0 PUSH0 REVERT JUMPDEST POP JUMP JUMPDEST PUSH0 DUP2 MLOAD SWAP1 POP PUSH2 0xCE DUP2 PUSH2 0xAA JUMP JUMPDEST SWAP3 SWAP2 POP POP JUMP JUMPDEST PUSH0 PUSH1 0x20 DUP3 DUP5 SUB SLT ISZERO PUSH2 0xE9 JUMPI PUSH2 0xE8 PUSH2 0x76 JUMP JUMPDEST JUMPDEST PUSH0 PUSH2 0xF6 DUP5 DUP3 DUP6 ADD PUSH2 0xC0 JUMP JUMPDEST SWAP2 POP POP SWAP3 SWAP2 POP POP JUMP JUMPDEST PUSH2 0x86D DUP1 PUSH2 0x10C PUSH0 CODECOPY PUSH0 RETURN INVALID PUSH1 0x80 PUSH1 0x40 MSTORE CALLVALUE DUP1 ISZERO PUSH2 0xF JUMPI PUSH0 PUSH0 REVERT JUMPDEST POP PUSH1 0x4 CALLDATASIZE LT PUSH2 0x34 JUMPI PUSH0 CALLDATALOAD PUSH1 0xE0 SHR DUP1 PUSH4 0x7B103999 EQ PUSH2 0x38 JUMPI DUP1 PUSH4 0xBB3670AB EQ PUSH2 0x56 JUMPI JUMPDEST PUSH0 PUSH0 REVERT JUMPDEST PUSH2 0x40 PUSH2 0x86 JUMP JUMPDEST PUSH1 0x40 MLOAD PUSH2 0x4D SWAP2 SWAP1 PUSH2 0x296 JUMP JUMPDEST PUSH1 0x40 MLOAD DUP1 SWAP2 SUB SWAP1 RETURN JUMPDEST PUSH2 0x70 PUSH1 0x4 DUP1 CALLDATASIZE SUB DUP2 ADD SWAP1 PUSH2 0x6B SWAP2 SWAP1 PUSH2 0x3FC JUMP JUMPDEST PUSH2 0xAA JUMP JUMPDEST PUSH1 0x40 MLOAD PUSH2 0x7D SWAP2 SWAP1 PUSH2 0x5DC JUMP JUMPDEST PUSH1 0x40 MLOAD DUP1 SWAP2 SUB SWAP1 RETURN JUMPDEST PUSH0 PUSH0 SWAP1 SLOAD SWAP1 PUSH2 0x100 EXP SWAP1 DIV PUSH20 0xFFFFFFFFFFFFFFFFFFFFFFFFFFFFFFFFFFFFFFFF AND DUP2 JUMP JUMPDEST PUSH2 0xB2 PUSH2 0x1D5 JUMP JUMPDEST PUSH0 PUSH0 PUSH0 PUSH0 PUSH0 PUSH0 PUSH0 SWAP1 SLOAD SWAP1 PUSH2 0x100 EXP SWAP1 DIV PUSH20 0xFFFFFFFFFFFFFFFFFFFFFFFFFFFFFFFFFFFFFFFF AND PUSH20 0xFFFFFFFFFFFFFFFFFFFFFFFFFFFFFFFFFFFFFFFF AND PUSH4 0xD091187F DUP9 PUSH1 0x40 MLOAD DUP3 PUSH4 0xFFFFFFFF AND PUSH1 0xE0 SHL DUP2 MSTORE PUSH1 0x4 ADD PUSH2 0x110 SWAP2 SWAP1 PUSH2 0x644 JUMP JUMPDEST PUSH0 PUSH1 0x40 MLOAD DUP1 DUP4 SUB DUP2 DUP7 GAS STATICCALL ISZERO DUP1 ISZERO PUSH2 0x12A JUMPI RETURNDATASIZE PUSH0 PUSH0 RETURNDATACOPY RETURNDATASIZE PUSH0 REVERT JUMPDEST POP POP POP POP PUSH1 0x40 MLOAD RETURNDATASIZE PUSH0 DUP3 RETURNDATACOPY RETURNDATASIZE PUSH1 0x1F NOT PUSH1 0x1F DUP3 ADD AND DUP3 ADD DUP1 PUSH1 0x40 MSTORE POP DUP2 ADD SWAP1 PUSH2 0x152 SWAP2 SWAP1 PUSH2 0x75A JUMP JUMPDEST POP SWAP5 POP SWAP5 POP SWAP5 POP SWAP5 POP SWAP5 POP PUSH0 PUSH0 PUSH1 0x3 DUP2 GT ISZERO PUSH2 0x171 JUMPI PUSH2 0x170 PUSH2 0x4BB JUMP JUMPDEST JUMPDEST DUP3 PUSH1 0x3 DUP2 GT ISZERO PUSH2 0x184 JUMPI PUSH2 0x183 PUSH2 0x4BB JUMP JUMPDEST JUMPDEST EQ SWAP1 POP PUSH1 0x40 MLOAD DUP1 PUSH1 0xC0 ADD PUSH1 0x40 MSTORE DUP1 DUP8 DUP2 MSTORE PUSH1 0x20 ADD DUP7 DUP2 MSTORE PUSH1 0x20 ADD DUP6 DUP2 MSTORE PUSH1 0x20 ADD DUP5 DUP2 MSTORE PUSH1 0x20 ADD DUP4 PUSH1 0x3 DUP2 GT ISZERO PUSH2 0x1BD JUMPI PUSH2 0x1BC PUSH2 0x4BB JUMP JUMPDEST JUMPDEST DUP2 MSTORE PUSH1 0x20 ADD DUP3 ISZERO ISZERO DUP2 MSTORE POP SWAP7 POP POP POP POP POP POP POP SWAP2 SWAP1 POP JUMP JUMPDEST PUSH1 0x40 MLOAD DUP1 PUSH1 0xC0 ADD PUSH1 0x40 MSTORE DUP1 PUSH1 0x60 DUP2 MSTORE PUSH1 0x20 ADD PUSH1 0x60 DUP2 MSTORE PUSH1 0x20 ADD PUSH1 0x60 DUP2 MSTORE PUSH1 0x20 ADD PUSH0 DUP2 MSTORE PUSH1 0x20 ADD PUSH0 PUSH1 0x3 DUP2 GT ISZERO PUSH2 0x20E JUMPI PUSH2 0x20D PUSH2 0x4BB JUMP JUMPDEST JUMPDEST DUP2 MSTORE PUSH1 0x20 ADD PUSH0 ISZERO ISZERO DUP2 MSTORE POP SWAP1 JUMP JUMPDEST PUSH0 PUSH20 0xFFFFFFFFFFFFFFFFFFFFFFFFFFFFFFFFFFFFFFFF DUP3 AND SWAP1 POP SWAP2 SWAP1 POP JUMP JUMPDEST PUSH0 DUP2 SWAP1 POP SWAP2 SWAP1 POP JUMP JUMPDEST PUSH0 PUSH2 0x25E PUSH2 0x259 PUSH2 0x254 DUP5 PUSH2 0x21C JUMP JUMPDEST PUSH2 0x23B JUMP JUMPDEST PUSH2 0x21C JUMP JUMPDEST SWAP1 POP SWAP2 SWAP1 POP JUMP JUMPDEST PUSH0 PUSH2 0x26F DUP3 PUSH2 0x244 JUMP JUMPDEST SWAP1 POP SWAP2 SWAP1 POP JUMP JUMPDEST PUSH0 PUSH2 0x280 DUP3 PUSH2 0x265 JUMP JUMPDEST SWAP1 POP SWAP2 SWAP1 POP JUMP JUMPDEST PUSH2 0x290 DUP2 PUSH2 0x276 JUMP JUMPDEST DUP3 MSTORE POP POP JUMP JUMPDEST PUSH0 PUSH1 0x20 DUP3 ADD SWAP1 POP PUSH2 0x2A9 PUSH0 DUP4 ADD DUP5 PUSH2 0x287 JUMP JUMPDEST SWAP3 SWAP2 POP POP JUMP JUMPDEST PUSH0 PUSH1 0x40 MLOAD SWAP1 POP SWAP1 JUMP JUMPDEST PUSH0 PUSH0 REVERT JUMPDEST PUSH0 PUSH0 REVERT JUMPDEST PUSH0 PUSH0 REVERT JUMPDEST PUSH0 PUSH0 REVERT JUMPDEST PUSH0 PUSH1 0x1F NOT PUSH1 0x1F DUP4 ADD AND SWAP1 POP SWAP2 SWAP1 POP JUMP JUMPDEST PUSH32 0x4E487B7100000000000000000000000000000000000000000000000000000000 PUSH0 MSTORE PUSH1 0x41 PUSH1 0x4 MSTORE PUSH1 0x24 PUSH0 REVERT JUMPDEST PUSH2 0x30E DUP3 PUSH2 0x2C8 JUMP JUMPDEST DUP2 ADD DUP2 DUP2 LT PUSH8 0xFFFFFFFFFFFFFFFF DUP3 GT OR ISZERO PUSH2 0x32D JUMPI PUSH2 0x32C PUSH2 0x2D8 JUMP JUMPDEST JUMPDEST DUP1 PUSH1 0x40 MSTORE POP POP POP JUMP JUMPDEST PUSH0 PUSH2 0x33F PUSH2 0x2AF JUMP JUMPDEST SWAP1 POP PUSH2 0x34B DUP3 DUP3 PUSH2 0x305 JUMP JUMPDEST SWAP2 SWAP1 POP JUMP JUMPDEST PUSH0 PUSH8 0xFFFFFFFFFFFFFFFF DUP3 GT ISZERO PUSH2 0x36A JUMPI PUSH2 0x369 PUSH2 0x2D8 JUMP JUMPDEST JUMPDEST PUSH2 0x373 DUP3 PUSH2 0x2C8 JUMP JUMPDEST SWAP1 POP PUSH1 0x20 DUP2 ADD SWAP1 POP SWAP2 SWAP1 POP JUMP JUMPDEST DUP3 DUP2 DUP4 CALLDATACOPY PUSH0 DUP4 DUP4 ADD MSTORE POP POP POP JUMP JUMPDEST PUSH0 PUSH2 0x3A0 PUSH2 0x39B DUP5 PUSH2 0x350 JUMP JUMPDEST PUSH2 0x336 JUMP JUMPDEST SWAP1 POP DUP3 DUP2 MSTORE PUSH1 0x20 DUP2 ADD DUP5 DUP5 DUP5 ADD GT ISZERO PUSH2 0x3BC JUMPI PUSH2 0x3BB PUSH2 0x2C4 JUMP JUMPDEST JUMPDEST PUSH2 0x3C7 DUP5 DUP3 DUP6 PUSH2 0x380 JUMP JUMPDEST POP SWAP4 SWAP3 POP POP POP JUMP JUMPDEST PUSH0 DUP3 PUSH1 0x1F DUP4 ADD SLT PUSH2 0x3E3 JUMPI PUSH2 0x3E2 PUSH2 0x2C0 JUMP JUMPDEST JUMPDEST DUP2 CALLDATALOAD PUSH2 0x3F3 DUP5 DUP3 PUSH1 0x20 DUP7 ADD PUSH2 0x38E JUMP JUMPDEST SWAP2 POP POP SWAP3 SWAP2 POP POP JUMP JUMPDEST PUSH0 PUSH1 0x20 DUP3 DUP5 SUB SLT ISZERO PUSH2 0x411 JUMPI PUSH2 0x410 PUSH2 0x2B8 JUMP JUMPDEST JUMPDEST PUSH0 DUP3 ADD CALLDATALOAD PUSH8 0xFFFFFFFFFFFFFFFF DUP2 GT ISZERO PUSH2 0x42E JUMPI PUSH2 0x42D PUSH2 0x2BC JUMP JUMPDEST JUMPDEST PUSH2 0x43A DUP5 DUP3 DUP6 ADD PUSH2 0x3CF JUMP JUMPDEST SWAP2 POP POP SWAP3 SWAP2 POP POP JUMP JUMPDEST PUSH0 DUP2 MLOAD SWAP1 POP SWAP2 SWAP1 POP JUMP JUMPDEST PUSH0 DUP3 DUP3 MSTORE PUSH1 0x20 DUP3 ADD SWAP1 POP SWAP3 SWAP2 POP POP JUMP JUMPDEST DUP3 DUP2 DUP4 MCOPY PUSH0 DUP4 DUP4 ADD MSTORE POP POP POP JUMP JUMPDEST PUSH0 PUSH2 0x475 DUP3 PUSH2 0x443 JUMP JUMPDEST PUSH2 0x47F DUP2 DUP6 PUSH2 0x44D JUMP JUMPDEST SWAP4 POP PUSH2 0x48F DUP2 DUP6 PUSH1 0x20 DUP7 ADD PUSH2 0x45D JUMP JUMPDEST PUSH2 0x498 DUP2 PUSH2 0x2C8 JUMP JUMPDEST DUP5 ADD SWAP2 POP POP SWAP3 SWAP2 POP POP JUMP JUMPDEST PUSH0 DUP2 SWAP1 POP SWAP2 SWAP1 POP JUMP JUMPDEST PUSH2 0x4B5 DUP2 PUSH2 0x4A3 JUMP JUMPDEST DUP3 MSTORE POP POP JUMP JUMPDEST PUSH32 0x4E487B7100000000000000000000000000000000000000000000000000000000 PUSH0 MSTORE PUSH1 0x21 PUSH1 0x4 MSTORE PUSH1 0x24 PUSH0 REVERT JUMPDEST PUSH1 0x4 DUP2 LT PUSH2 0x4F9 JUMPI PUSH2 0x4F8 PUSH2 0x4BB JUMP JUMPDEST JUMPDEST POP JUMP JUMPDEST PUSH0 DUP2 SWAP1 POP PUSH2 0x509 DUP3 PUSH2 0x4E8 JUMP JUMPDEST SWAP2 SWAP1 POP JUMP JUMPDEST PUSH0 PUSH2 0x518 DUP3 PUSH2 0x4FC JUMP JUMPDEST SWAP1 POP SWAP2 SWAP1 POP JUMP JUMPDEST PUSH2 0x528 DUP2 PUSH2 0x50E JUMP JUMPDEST DUP3 MSTORE POP POP JUMP JUMPDEST PUSH0 DUP2 ISZERO ISZERO SWAP1 POP SWAP2 SWAP1 POP JUMP JUMPDEST PUSH2 0x542 DUP2 PUSH2 0x52E JUMP JUMPDEST DUP3 MSTORE POP POP JUMP JUMPDEST PUSH0 PUSH1 0xC0 DUP4 ADD PUSH0 DUP4 ADD MLOAD DUP5 DUP3 SUB PUSH0 DUP7 ADD MSTORE PUSH2 0x562 DUP3 DUP3 PUSH2 0x46B JUMP JUMPDEST SWAP2 POP POP PUSH1 0x20 DUP4 ADD MLOAD DUP5 DUP3 SUB PUSH1 0x20 DUP7 ADD MSTORE PUSH2 0x57C DUP3 DUP3 PUSH2 0x46B JUMP JUMPDEST SWAP2 POP POP PUSH1 0x40 DUP4 ADD MLOAD DUP5 DUP3 SUB PUSH1 0x40 DUP7 ADD MSTORE PUSH2 0x596 DUP3 DUP3 PUSH2 0x46B JUMP JUMPDEST SWAP2 POP POP PUSH1 0x60 DUP4 ADD MLOAD PUSH2 0x5AB PUSH1 0x60 DUP7 ADD DUP3 PUSH2 0x4AC JUMP JUMPDEST POP PUSH1 0x80 DUP4 ADD MLOAD PUSH2 0x5BE PUSH1 0x80 DUP7 ADD DUP3 PUSH2 0x51F JUMP JUMPDEST POP PUSH1 0xA0 DUP4 ADD MLOAD PUSH2 0x5D1 PUSH1 0xA0 DUP7 ADD DUP3 PUSH2 0x539 JUMP JUMPDEST POP DUP1 SWAP2 POP POP SWAP3 SWAP2 POP POP JUMP JUMPDEST PUSH0 PUSH1 0x20 DUP3 ADD SWAP1 POP DUP2 DUP2 SUB PUSH0 DUP4 ADD MSTORE PUSH2 0x5F4 DUP2 DUP5 PUSH2 0x548 JUMP JUMPDEST SWAP1 POP SWAP3 SWAP2 POP POP JUMP JUMPDEST PUSH0 DUP3 DUP3 MSTORE PUSH1 0x20 DUP3 ADD SWAP1 POP SWAP3 SWAP2 POP POP JUMP JUMPDEST PUSH0 PUSH2 0x616 DUP3 PUSH2 0x443 JUMP JUMPDEST PUSH2 0x620 DUP2 DUP6 PUSH2 0x5FC JUMP JUMPDEST SWAP4 POP PUSH2 0x630 DUP2 DUP6 PUSH1 0x20 DUP7 ADD PUSH2 0x45D JUMP JUMPDEST PUSH2 0x639 DUP2 PUSH2 0x2C8 JUMP JUMPDEST DUP5 ADD SWAP2 POP POP SWAP3 SWAP2 POP POP JUMP JUMPDEST PUSH0 PUSH1 0x20 DUP3 ADD SWAP1 POP DUP2 DUP2 SUB PUSH0 DUP4 ADD MSTORE PUSH2 0x65C DUP2 DUP5 PUSH2 0x60C JUMP JUMPDEST SWAP1 POP SWAP3 SWAP2 POP POP JUMP JUMPDEST PUSH0 PUSH2 0x676 PUSH2 0x671 DUP5 PUSH2 0x350 JUMP JUMPDEST PUSH2 0x336 JUMP JUMPDEST SWAP1 POP DUP3 DUP2 MSTORE PUSH1 0x20 DUP2 ADD DUP5 DUP5 DUP5 ADD GT ISZERO PUSH2 0x692 JUMPI PUSH2 0x691 PUSH2 0x2C4 JUMP JUMPDEST JUMPDEST PUSH2 0x69D DUP5 DUP3 DUP6 PUSH2 0x45D JUMP JUMPDEST POP SWAP4 SWAP3 POP POP POP JUMP JUMPDEST PUSH0 DUP3 PUSH1 0x1F DUP4 ADD SLT PUSH2 0x6B9 JUMPI PUSH2 0x6B8 PUSH2 0x2C0 JUMP JUMPDEST JUMPDEST DUP2 MLOAD PUSH2 0x6C9 DUP5 DUP3 PUSH1 0x20 DUP7 ADD PUSH2 0x664 JUMP JUMPDEST SWAP2 POP POP SWAP3 SWAP2 POP POP JUMP JUMPDEST PUSH2 0x6DB DUP2 PUSH2 0x4A3 JUMP JUMPDEST DUP2 EQ PUSH2 0x6E5 JUMPI PUSH0 PUSH0 REVERT JUMPDEST POP JUMP JUMPDEST PUSH0 DUP2 MLOAD SWAP1 POP PUSH2 0x6F6 DUP2 PUSH2 0x6D2 JUMP JUMPDEST SWAP3 SWAP2 POP POP JUMP JUMPDEST PUSH1 0x4 DUP2 LT PUSH2 0x708 JUMPI PUSH0 PUSH0 REVERT JUMPDEST POP JUMP JUMPDEST PUSH0 DUP2 MLOAD SWAP1 POP PUSH2 0x719 DUP2 PUSH2 0x6FC JUMP JUMPDEST SWAP3 SWAP2 POP POP JUMP JUMPDEST PUSH0 PUSH2 0x729 DUP3 PUSH2 0x21C JUMP JUMPDEST SWAP1 POP SWAP2 SWAP1 POP JUMP JUMPDEST PUSH2 0x739 DUP2 PUSH2 0x71F JUMP JUMPDEST DUP2 EQ PUSH2 0x743 JUMPI PUSH0 PUSH0 REVERT JUMPDEST POP JUMP JUMPDEST PUSH0 DUP2 MLOAD SWAP1 POP PUSH2 0x754 DUP2 PUSH2 0x730 JUMP JUMPDEST SWAP3 SWAP2 POP POP JUMP JUMPDEST PUSH0 PUSH0 PUSH0 PUSH0 PUSH0 PUSH0 PUSH1 0xC0 DUP8 DUP10 SUB SLT ISZERO PUSH2 0x774 JUMPI PUSH2 0x773 PUSH2 0x2B8 JUMP JUMPDEST JUMPDEST PUSH0 DUP8 ADD MLOAD PUSH8 0xFFFFFFFFFFFFFFFF DUP2 GT ISZERO PUSH2 0x791 JUMPI PUSH2 0x790 PUSH2 0x2BC JUMP JUMPDEST JUMPDEST PUSH2 0x79D DUP10 DUP3 DUP11 ADD PUSH2 0x6A5 JUMP JUMPDEST SWAP7 POP POP PUSH1 0x20 DUP8 ADD MLOAD PUSH8 0xFFFFFFFFFFFFFFFF DUP2 GT ISZERO PUSH2 0x7BE JUMPI PUSH2 0x7BD PUSH2 0x2BC JUMP JUMPDEST JUMPDEST PUSH2 0x7CA DUP10 DUP3 DUP11 ADD PUSH2 0x6A5 JUMP JUMPDEST SWAP6 POP POP PUSH1 0x40 DUP8 ADD MLOAD PUSH8 0xFFFFFFFFFFFFFFFF DUP2 GT ISZERO PUSH2 0x7EB JUMPI PUSH2 0x7EA PUSH2 0x2BC JUMP JUMPDEST JUMPDEST PUSH2 0x7F7 DUP10 DUP3 DUP11 ADD PUSH2 0x6A5 JUMP JUMPDEST SWAP5 POP POP PUSH1 0x60 PUSH2 0x808 DUP10 DUP3 DUP11 ADD PUSH2 0x6E8 JUMP JUMPDEST SWAP4 POP POP PUSH1 0x80 PUSH2 0x819 DUP10 DUP3 DUP11 ADD PUSH2 0x70B JUMP JUMPDEST SWAP3 POP POP PUSH1 0xA0 PUSH2 0x82A DUP10 DUP3 DUP11 ADD PUSH2 0x746 JUMP JUMPDEST SWAP2 POP POP SWAP3 SWAP6 POP SWAP3 SWAP6 POP SWAP3 SWAP6 JUMP INVALID LOG2 PUSH5 0x6970667358 0x22 SLT KECCAK256 SHR 0x4E 0xD4 LOG0 0x4B AND PUSH5 0x70B7473304 JUMPDEST 0x21 0x2C DELEGATECALL 0x23 0xBE SWAP3 CALL PUSH3 0xFA71E4 SLT CODECOPY 0xA6 0x1F 0x4F 0x4D SWAP2 0xAB PUSH5 0x736F6C6343 STOP ADDMOD 0x1E STOP CALLER "
				},
				"gasEstimates": {
					"creation": {
						"codeDepositCost": "431400",
						"executionCost": "infinite",
						"totalCost": "infinite"
					},
					"external": {
						"registry()": "infinite",
						"verifyCredential(string)": "infinite"
					}
				},
				"methodIdentifiers": {
					"registry()": "7b103999",
					"verifyCredential(string)": "bb3670ab"
				}
			},
			"storageLayout": {
				"storage": [
					{
						"astId": 289,
						"contract": "Assignment3/CertProff.sol:Verification",
						"label": "registry",
						"offset": 0,
						"slot": "0",
						"type": "t_contract(Registry)285"
					}
				],
				"types": {
					"t_contract(Registry)285": {
						"encoding": "inplace",
						"label": "contract Registry",
						"numberOfBytes": "20"
					}
				}
			},
			"userdoc": {
				"kind": "user",
				"methods": {},
				"notice": "----------------------------------------------------------------------- VERIFICATION CONTRACT -----------------------------------------------------------------------",
				"version": 1
			}
		}
	}
}