{
	"data": {
		"bytecode": {
			"linkReferences": {},
			"object": "60806040526040518060400160405280601a81526020017f4365727470726f66662043726564656e7469616c20546f6b656e00000000000081525060019081610048919061033d565b506040518060400160405280600381526020017f43435400000000000000000000000000000000000000000000000000000000008152506002908161008d919061033d565b50348015610099575f5ffd5b506040516112d93803806112d983398181016040528101906100bb919061046a565b805f5f6101000a81548173ffffffffffffffffffffffffffffffffffffffff021916908373ffffffffffffffffffffffffffffffffffffffff16021790555050610495565b5f81519050919050565b7f4e487b71000000000000000000000000000000000000000000000000000000005f52604160045260245ffd5b7f4e487b71000000000000000000000000000000000000000000000000000000005f52602260045260245ffd5b5f600282049050600182168061017b57607f821691505b60208210810361018e5761018d610137565b5b50919050565b5f819050815f5260205f209050919050565b5f6020601f8301049050919050565b5f82821b905092915050565b5f600883026101f07fffffffffffffffffffffffffffffffffffffffffffffffffffffffffffffffff826101b5565b6101fa86836101b5565b95508019841693508086168417925050509392505050565b5f819050919050565b5f819050919050565b5f61023e61023961023484610212565b61021b565b610212565b9050919050565b5f819050919050565b61025783610224565b61026b61026382610245565b8484546101c1565b825550505050565b5f5f905090565b610282610273565b61028d81848461024e565b505050565b5b818110156102b0576102a55f8261027a565b600181019050610293565b5050565b601f8211156102f5576102c681610194565b6102cf846101a6565b810160208510156102de578190505b6102f26102ea856101a6565b830182610292565b50505b505050565b5f82821c905092915050565b5f6103155f19846008026102fa565b1980831691505092915050565b5f61032d8383610306565b9150826002028217905092915050565b61034682610100565b67ffffffffffffffff81111561035f5761035e61010a565b5b6103698254610164565b6103748282856102b4565b5f60209050601f8311600181146103a5575f8415610393578287015190505b61039d8582610322565b865550610404565b601f1984166103b386610194565b5f5b828110156103da578489015182556001820191506020850194506020810190506103b5565b868310156103f757848901516103f3601f891682610306565b8355505b6001600288020188555050505b505050505050565b5f5ffd5b5f73ffffffffffffffffffffffffffffffffffffffff82169050919050565b5f61043982610410565b9050919050565b6104498161042f565b8114610453575f5ffd5b50565b5f8151905061046481610440565b92915050565b5f6020828403121561047f5761047e61040c565b5b5f61048c84828501610456565b91505092915050565b610e37806104a25f395ff3fe608060405234801561000f575f5ffd5b5060043610610055575f3560e01c806306fdde03146100595780634f64b2be146100775780637b103999146100a957806395d89b41146100c7578063ce4a84e9146100e5575b5f5ffd5b610061610101565b60405161006e9190610589565b60405180910390f35b610091600480360381019061008c91906105ed565b61018d565b6040516100a093929190610666565b60405180910390f35b6100b1610258565b6040516100be91906106fd565b60405180910390f35b6100cf61027c565b6040516100dc9190610589565b60405180910390f35b6100ff60048036038101906100fa9190610842565b610308565b005b6001805461010e906108b6565b80601f016020809104026020016040519081016040528092919081815260200182805461013a906108b6565b80156101855780601f1061015c57610100808354040283529160200191610185565b820191905f5260205f20905b81548152906001019060200180831161016857829003601f168201915b505050505081565b6004602052805f5260405f205f91509050805f0154908060010180546101b2906108b6565b80601f01602080910402602001604051908101604052809291908181526020018280546101de906108b6565b80156102295780601f1061020057610100808354040283529160200191610229565b820191905f5260205f20905b81548152906001019060200180831161020c57829003601f168201915b505050505090806002015f9054906101000a900473ffffffffffffffffffffffffffffffffffffffff16905083565b5f5f9054906101000a900473ffffffffffffffffffffffffffffffffffffffff1681565b60028054610289906108b6565b80601f01602080910402602001604051908101604052809291908181526020018280546102b5906108b6565b80156103005780601f106102d757610100808354040283529160200191610300565b820191905f5260205f20905b8154815290600101906020018083116102e357829003601f168201915b505050505081565b5f5f5f5f9054906101000a900473ffffffffffffffffffffffffffffffffffffffff1673ffffffffffffffffffffffffffffffffffffffff1663d091187f846040518263ffffffff1660e01b81526004016103639190610589565b5f60405180830381865afa15801561037d573d5f5f3e3d5ffd5b505050506040513d5f823e3d601f19601f820116820180604052508101906103a591906109b5565b95509550505050505f60038111156103c0576103bf610a92565b5b8260038111156103d3576103d2610a92565b5b14610413576040517f08c379a000000000000000000000000000000000000000000000000000000000815260040161040a90610b09565b60405180910390fd5b60035f81548092919061042590610b54565b9190505550604051806060016040528060035481526020018481526020018273ffffffffffffffffffffffffffffffffffffffff1681525060045f60035481526020019081526020015f205f820151815f0155602082015181600101908161048d9190610d32565b506040820151816002015f6101000a81548173ffffffffffffffffffffffffffffffffffffffff021916908373ffffffffffffffffffffffffffffffffffffffff1602179055509050507f208fc879b2f79f1ad2db0092de4d06a54d88cdc1dff244c49eb2ae363efd3f61600354848360405161050c93929190610666565b60405180910390a1505050565b5f81519050919050565b5f82825260208201905092915050565b8281835e5f83830152505050565b5f601f19601f8301169050919050565b5f61055b82610519565b6105658185610523565b9350610575818560208601610533565b61057e81610541565b840191505092915050565b5f6020820190508181035f8301526105a18184610551565b905092915050565b5f604051905090565b5f5ffd5b5f5ffd5b5f819050919050565b6105cc816105ba565b81146105d6575f5ffd5b50565b5f813590506105e7816105c3565b92915050565b5f60208284031215610602576106016105b2565b5b5f61060f848285016105d9565b91505092915050565b610621816105ba565b82525050565b5f73ffffffffffffffffffffffffffffffffffffffff82169050919050565b5f61065082610627565b9050919050565b61066081610646565b82525050565b5f6060820190506106795f830186610618565b818103602083015261068b8185610551565b905061069a6040830184610657565b949350505050565b5f819050919050565b5f6106c56106c06106bb84610627565b6106a2565b610627565b9050919050565b5f6106d6826106ab565b9050919050565b5f6106e7826106cc565b9050919050565b6106f7816106dd565b82525050565b5f6020820190506107105f8301846106ee565b92915050565b5f5ffd5b5f5ffd5b7f4e487b71000000000000000000000000000000000000000000000000000000005f52604160045260245ffd5b61075482610541565b810181811067ffffffffffffffff821117156107735761077261071e565b5b80604052505050565b5f6107856105a9565b9050610791828261074b565b919050565b5f67ffffffffffffffff8211156107b0576107af61071e565b5b6107b982610541565b9050602081019050919050565b828183375f83830152505050565b5f6107e66107e184610796565b61077c565b9050828152602081018484840111156108025761080161071a565b5b61080d8482856107c6565b509392505050565b5f82601f83011261082957610828610716565b5b81356108398482602086016107d4565b91505092915050565b5f60208284031215610857576108566105b2565b5b5f82013567ffffffffffffffff811115610874576108736105b6565b5b61088084828501610815565b91505092915050565b7f4e487b71000000000000000000000000000000000000000000000000000000005f52602260045260245ffd5b5f60028204905060018216806108cd57607f821691505b6020821081036108e0576108df610889565b5b50919050565b5f6108f86108f384610796565b61077c565b9050828152602081018484840111156109145761091361071a565b5b61091f848285610533565b509392505050565b5f82601f83011261093b5761093a610716565b5b815161094b8482602086016108e6565b91505092915050565b5f81519050610962816105c3565b92915050565b60048110610974575f5ffd5b50565b5f8151905061098581610968565b92915050565b61099481610646565b811461099e575f5ffd5b50565b5f815190506109af8161098b565b92915050565b5f5f5f5f5f5f60c087890312156109cf576109ce6105b2565b5b5f87015167ffffffffffffffff8111156109ec576109eb6105b6565b5b6109f889828a01610927565b965050602087015167ffffffffffffffff811115610a1957610a186105b6565b5b610a2589828a01610927565b955050604087015167ffffffffffffffff811115610a4657610a456105b6565b5b610a5289828a01610927565b9450506060610a6389828a01610954565b9350506080610a7489828a01610977565b92505060a0610a8589828a016109a1565b9150509295509295509295565b7f4e487b71000000000000000000000000000000000000000000000000000000005f52602160045260245ffd5b7f43726564656e7469616c206e6f742061637469766500000000000000000000005f82015250565b5f610af3601583610523565b9150610afe82610abf565b602082019050919050565b5f6020820190508181035f830152610b2081610ae7565b9050919050565b7f4e487b71000000000000000000000000000000000000000000000000000000005f52601160045260245ffd5b5f610b5e826105ba565b91507fffffffffffffffffffffffffffffffffffffffffffffffffffffffffffffffff8203610b9057610b8f610b27565b5b600182019050919050565b5f819050815f5260205f209050919050565b5f6020601f8301049050919050565b5f82821b905092915050565b5f60088302610bf77fffffffffffffffffffffffffffffffffffffffffffffffffffffffffffffffff82610bbc565b610c018683610bbc565b95508019841693508086168417925050509392505050565b5f610c33610c2e610c29846105ba565b6106a2565b6105ba565b9050919050565b5f819050919050565b610c4c83610c19565b610c60610c5882610c3a565b848454610bc8565b825550505050565b5f5f905090565b610c77610c68565b610c82818484610c43565b505050565b5b81811015610ca557610c9a5f82610c6f565b600181019050610c88565b5050565b601f821115610cea57610cbb81610b9b565b610cc484610bad565b81016020851015610cd3578190505b610ce7610cdf85610bad565b830182610c87565b50505b505050565b5f82821c905092915050565b5f610d0a5f1984600802610cef565b1980831691505092915050565b5f610d228383610cfb565b9150826002028217905092915050565b610d3b82610519565b67ffffffffffffffff811115610d5457610d5361071e565b5b610d5e82546108b6565b610d69828285610ca9565b5f60209050601f831160018114610d9a575f8415610d88578287015190505b610d928582610d17565b865550610df9565b601f198416610da886610b9b565b5f5b82811015610dcf57848901518255600182019150602085019450602081019050610daa565b86831015610dec5784890151610de8601f891682610cfb565b8355505b6001600288020188555050505b50505050505056fea2646970667358221220f2230a83af7e77cf0e1267f12e076744ca7b578c31ca65ea4475c951a368180f64736f6c634300081e0033",
			"opcodes": "PUSH1 0x80 PUSH1 0x40 MSTORE PUSH1 0x40 MLOAD DUP1 PUSH1 0x40 ADD PUSH1 0x40 MSTORE DUP1 PUSH1 0x1A DUP2 MSTORE PUSH1 0x20 ADD PUSH32 0x4365727470726F66662043726564656E7469616C20546F6B656E000000000000 DUP2 MSTORE POP PUSH1 0x1 SWAP1 DUP2 PUSH2 0x48 SWAP2 SWAP1 PUSH2 0x33D JUMP JUMPDEST POP PUSH1 0x40 MLOAD DUP1 PUSH1 0x40 ADD PUSH1 0x40 MSTORE DUP1 PUSH1 0x3 DUP2 MSTORE PUSH1 0x20 ADD PUSH32 0x4343540000000000000000000000000000000000000000000000000000000000 DUP2 MSTORE POP PUSH1 0x2 SWAP1 DUP2 PUSH2 0x8D SWAP2 SWAP1 PUSH2 0x33D JUMP JUMPDEST POP CALLVALUE DUP1 ISZERO PUSH2 0x99 JUMPI PUSH0 PUSH0 REVERT JUMPDEST POP PUSH1 0x40 MLOAD PUSH2 0x12D9 CODESIZE SUB DUP1 PUSH2 0x12D9 DUP4 CODECOPY DUP2 DUP2 ADD PUSH1 0x40 MSTORE DUP2 ADD SWAP1 PUSH2 0xBB SWAP2 SWAP1 PUSH2 0x46A JUMP JUMPDEST DUP1 PUSH0 PUSH0 PUSH2 0x100 EXP DUP2 SLOAD DUP2 PUSH20 0xFFFFFFFFFFFFFFFFFFFFFFFFFFFFFFFFFFFFFFFF MUL NOT AND SWAP1 DUP4 PUSH20 0xFFFFFFFFFFFFFFFFFFFFFFFFFFFFFFFFFFFFFFFF AND MUL OR SWAP1 SSTORE POP POP PUSH2 0x495 JUMP JUMPDEST PUSH0 DUP2 MLOAD SWAP1 POP SWAP2 SWAP1 POP JUMP JUMPDEST PUSH32 0x4E487B7100000000000000000000000000000000000000000000000000000000 PUSH0 MSTORE PUSH1 0x41 PUSH1 0x4 MSTORE PUSH1 0x24 PUSH0 REVERT JUMPDEST PUSH32 0x4E487B7100000000000000000000000000000000000000000000000000000000 PUSH0 MSTORE PUSH1 0x22 PUSH1 0x4 MSTORE PUSH1 0x24 PUSH0 REVERT JUMPDEST PUSH0 PUSH1 0x2 DUP3 DIV SWAP1 POP PUSH1 0x1 DUP3 AND DUP1 PUSH2 0x17B JUMPI PUSH1 0x7F DUP3 AND SWAP2 POP JUMPDEST PUSH1 0x20 DUP3 LT DUP2 SUB PUSH2 0x18E JUMPI PUSH2 0x18D PUSH2 0x137 JUMP JUMPDEST JUMPDEST POP SWAP2 SWAP1 POP JUMP JUMPDEST PUSH0 DUP2 SWAP1 POP DUP2 PUSH0 MSTORE PUSH1 0x20 PUSH0 KECCAK256 SWAP1 POP SWAP2 SWAP1 POP JUMP JUMPDEST PUSH0 PUSH1 0x20 PUSH1 0x1F DUP4 ADD DIV SWAP1 POP SWAP2 SWAP1 POP JUMP JUMPDEST PUSH0 DUP3 DUP3 SHL SWAP1 POP SWAP3 SWAP2 POP POP JUMP JUMPDEST PUSH0 PUSH1 0x8 DUP4 MUL PUSH2 0x1F0 PUSH32 0xFFFFFFFFFFFFFFFFFFFFFFFFFFFFFFFFFFFFFFFFFFFFFFFFFFFFFFFFFFFFFFFF DUP3 PUSH2 0x1B5 JUMP JUMPDEST PUSH2 0x1FA DUP7 DUP4 PUSH2 0x1B5 JUMP JUMPDEST SWAP6 POP DUP1 NOT DUP5 AND SWAP4 POP DUP1 DUP7 AND DUP5 OR SWAP3 POP POP POP SWAP4 SWAP3 POP POP POP JUMP JUMPDEST PUSH0 DUP2 SWAP1 POP SWAP2 SWAP1 POP JUMP JUMPDEST PUSH0 DUP2 SWAP1 POP SWAP2 SWAP1 POP JUMP JUMPDEST PUSH0 PUSH2 0x23E PUSH2 0x239 PUSH2 0x234 DUP5 PUSH2 0x212 JUMP JUMPDEST PUSH2 0x21B JUMP JUMPDEST PUSH2 0x212 JUMP JUMPDEST SWAP1 POP SWAP2 SWAP1 POP JUMP JUMPDEST PUSH0 DUP2 SWAP1 POP SWAP2 SWAP1 POP JUMP JUMPDEST PUSH2 0x257 DUP4 PUSH2 0x224 JUMP JUMPDEST PUSH2 0x26B PUSH2 0x263 DUP3 PUSH2 0x245 JUMP JUMPDEST DUP5 DUP5 SLOAD PUSH2 0x1C1 JUMP JUMPDEST DUP3 SSTORE POP POP POP POP JUMP JUMPDEST PUSH0 PUSH0 SWAP1 POP SWAP1 JUMP JUMPDEST PUSH2 0x282 PUSH2 0x273 JUMP JUMPDEST PUSH2 0x28D DUP2 DUP5 DUP5 PUSH2 0x24E JUMP JUMPDEST POP POP POP JUMP JUMPDEST JUMPDEST DUP2 DUP2 LT ISZERO PUSH2 0x2B0 JUMPI PUSH2 0x2A5 PUSH0 DUP3 PUSH2 0x27A JUMP JUMPDEST PUSH1 0x1 DUP2 ADD SWAP1 POP PUSH2 0x293 JUMP JUMPDEST POP POP JUMP JUMPDEST PUSH1 0x1F DUP3 GT ISZERO PUSH2 0x2F5 JUMPI PUSH2 0x2C6 DUP2 PUSH2 0x194 JUMP JUMPDEST PUSH2 0x2CF DUP5 PUSH2 0x1A6 JUMP JUMPDEST DUP2 ADD PUSH1 0x20 DUP6 LT ISZERO PUSH2 0x2DE JUMPI DUP2 SWAP1 POP JUMPDEST PUSH2 0x2F2 PUSH2 0x2EA DUP6 PUSH2 0x1A6 JUMP JUMPDEST DUP4 ADD DUP3 PUSH2 0x292 JUMP JUMPDEST POP POP JUMPDEST POP POP POP JUMP JUMPDEST PUSH0 DUP3 DUP3 SHR SWAP1 POP SWAP3 SWAP2 POP POP JUMP JUMPDEST PUSH0 PUSH2 0x315 PUSH0 NOT DUP5 PUSH1 0x8 MUL PUSH2 0x2FA JUMP JUMPDEST NOT DUP1 DUP4 AND SWAP2 POP POP SWAP3 SWAP2 POP POP JUMP JUMPDEST PUSH0 PUSH2 0x32D DUP4 DUP4 PUSH2 0x306 JUMP JUMPDEST SWAP2 POP DUP3 PUSH1 0x2 MUL DUP3 OR SWAP1 POP SWAP3 SWAP2 POP POP JUMP JUMPDEST PUSH2 0x346 DUP3 PUSH2 0x100 JUMP JUMPDEST PUSH8 0xFFFFFFFFFFFFFFFF DUP2 GT ISZERO PUSH2 0x35F JUMPI PUSH2 0x35E PUSH2 0x10A JUMP JUMPDEST JUMPDEST PUSH2 0x369 DUP3 SLOAD PUSH2 0x164 JUMP JUMPDEST PUSH2 0x374 DUP3 DUP3 DUP6 PUSH2 0x2B4 JUMP JUMPDEST PUSH0 PUSH1 0x20 SWAP1 POP PUSH1 0x1F DUP4 GT PUSH1 0x1 DUP2 EQ PUSH2 0x3A5 JUMPI PUSH0 DUP5 ISZERO PUSH2 0x393 JUMPI DUP3 DUP8 ADD MLOAD SWAP1 POP JUMPDEST PUSH2 0x39D DUP6 DUP3 PUSH2 0x322 JUMP JUMPDEST DUP7 SSTORE POP PUSH2 0x404 JUMP JUMPDEST PUSH1 0x1F NOT DUP5 AND PUSH2 0x3B3 DUP7 PUSH2 0x194 JUMP JUMPDEST PUSH0 JUMPDEST DUP3 DUP2 LT ISZERO PUSH2 0x3DA JUMPI DUP5 DUP10 ADD MLOAD DUP3 SSTORE PUSH1 0x1 DUP3 ADD SWAP2 POP PUSH1 0x20 DUP6 ADD SWAP5 POP PUSH1 0x20 DUP2 ADD SWAP1 POP PUSH2 0x3B5 JUMP JUMPDEST DUP7 DUP4 LT ISZERO PUSH2 0x3F7 JUMPI DUP5 DUP10 ADD MLOAD PUSH2 0x3F3 PUSH1 0x1F DUP10 AND DUP3 PUSH2 0x306 JUMP JUMPDEST DUP4 SSTORE POP JUMPDEST PUSH1 0x1 PUSH1 0x2 DUP9 MUL ADD DUP9 SSTORE POP POP POP JUMPDEST POP POP POP POP POP POP JUMP JUMPDEST PUSH0 PUSH0 REVERT JUMPDEST PUSH0 PUSH20 0xFFFFFFFFFFFFFFFFFFFFFFFFFFFFFFFFFFFFFFFF DUP3 AND SWAP1 POP SWAP2 SWAP1 POP JUMP JUMPDEST PUSH0 PUSH2 0x439 DUP3 PUSH2 0x410 JUMP JUMPDEST SWAP1 POP SWAP2 SWAP1 POP JUMP JUMPDEST PUSH2 0x449 DUP2 PUSH2 0x42F JUMP JUMPDEST DUP2 EQ PUSH2 0x453 JUMPI PUSH0 PUSH0 REVERT JUMPDEST POP JUMP JUMPDEST PUSH0 DUP2 MLOAD SWAP1 POP PUSH2 0x464 DUP2 PUSH2 0x440 JUMP JUMPDEST SWAP3 SWAP2 POP POP JUMP JUMPDEST PUSH0 PUSH1 0x20 DUP3 DUP5 SUB SLT ISZERO PUSH2 0x47F JUMPI PUSH2 0x47E PUSH2 0x40C JUMP JUMPDEST JUMPDEST PUSH0 PUSH2 0x48C DUP5 DUP3 DUP6 ADD PUSH2 0x456 JUMP JUMPDEST SWAP2 POP POP SWAP3 SWAP2 POP POP JUMP JUMPDEST PUSH2 0xE37 DUP1 PUSH2 0x4A2 PUSH0 CODECOPY PUSH0 RETURN INVALID PUSH1 0x80 PUSH1 0x40 MSTORE CALLVALUE DUP1 ISZERO PUSH2 0xF JUMPI PUSH0 PUSH0 REVERT JUMPDEST POP PUSH1 0x4 CALLDATASIZE LT PUSH2 0x55 JUMPI PUSH0 CALLDATALOAD PUSH1 0xE0 SHR DUP1 PUSH4 0x6FDDE03 EQ PUSH2 0x59 JUMPI DUP1 PUSH4 0x4F64B2BE EQ PUSH2 0x77 JUMPI DUP1 PUSH4 0x7B103999 EQ PUSH2 0xA9 JUMPI DUP1 PUSH4 0x95D89B41 EQ PUSH2 0xC7 JUMPI DUP1 PUSH4 0xCE4A84E9 EQ PUSH2 0xE5 JUMPI JUMPDEST PUSH0 PUSH0 REVERT JUMPDEST PUSH2 0x61 PUSH2 0x101 JUMP JUMPDEST PUSH1 0x40 MLOAD PUSH2 0x6E SWAP2 SWAP1 PUSH2 0x589 JUMP JUMPDEST PUSH1 0x40 MLOAD DUP1 SWAP2 SUB SWAP1 RETURN JUMPDEST PUSH2 0x91 PUSH1 0x4 DUP1 CALLDATASIZE SUB DUP2 ADD SWAP1 PUSH2 0x8C SWAP2 SWAP1 PUSH2 0x5ED JUMP JUMPDEST PUSH2 0x18D JUMP JUMPDEST PUSH1 0x40 MLOAD PUSH2 0xA0 SWAP4 SWAP3 SWAP2 SWAP1 PUSH2 0x666 JUMP JUMPDEST PUSH1 0x40 MLOAD DUP1 SWAP2 SUB SWAP1 RETURN JUMPDEST PUSH2 0xB1 PUSH2 0x258 JUMP JUMPDEST PUSH1 0x40 MLOAD PUSH2 0xBE SWAP2 SWAP1 PUSH2 0x6FD JUMP JUMPDEST PUSH1 0x40 MLOAD DUP1 SWAP2 SUB SWAP1 RETURN JUMPDEST PUSH2 0xCF PUSH2 0x27C JUMP JUMPDEST PUSH1 0x40 MLOAD PUSH2 0xDC SWAP2 SWAP1 PUSH2 0x589 JUMP JUMPDEST PUSH1 0x40 MLOAD DUP1 SWAP2 SUB SWAP1 RETURN JUMPDEST PUSH2 0xFF PUSH1 0x4 DUP1 CALLDATASIZE SUB DUP2 ADD SWAP1 PUSH2 0xFA SWAP2 SWAP1 PUSH2 0x842 JUMP JUMPDEST PUSH2 0x308 JUMP JUMPDEST STOP JUMPDEST PUSH1 0x1 DUP1 SLOAD PUSH2 0x10E SWAP1 PUSH2 0x8B6 JUMP JUMPDEST DUP1 PUSH1 0x1F ADD PUSH1 0x20 DUP1 SWAP2 DIV MUL PUSH1 0x20 ADD PUSH1 0x40 MLOAD SWAP1 DUP2 ADD PUSH1 0x40 MSTORE DUP1 SWAP3 SWAP2 SWAP1 DUP2 DUP2 MSTORE PUSH1 0x20 ADD DUP3 DUP1 SLOAD PUSH2 0x13A SWAP1 PUSH2 0x8B6 JUMP JUMPDEST DUP1 ISZERO PUSH2 0x185 JUMPI DUP1 PUSH1 0x1F LT PUSH2 0x15C JUMPI PUSH2 0x100 DUP1 DUP4 SLOAD DIV MUL DUP4 MSTORE SWAP2 PUSH1 0x20 ADD SWAP2 PUSH2 0x185 JUMP JUMPDEST DUP3 ADD SWAP2 SWAP1 PUSH0 MSTORE PUSH1 0x20 PUSH0 KECCAK256 SWAP1 JUMPDEST DUP2 SLOAD DUP2 MSTORE SWAP1 PUSH1 0x1 ADD SWAP1 PUSH1 0x20 ADD DUP1 DUP4 GT PUSH2 0x168 JUMPI DUP3 SWAP1 SUB PUSH1 0x1F AND DUP3 ADD SWAP2 JUMPDEST POP POP POP POP POP DUP2 JUMP JUMPDEST PUSH1 0x4 PUSH1 0x20 MSTORE DUP1 PUSH0 MSTORE PUSH1 0x40 PUSH0 KECCAK256 PUSH0 SWAP2 POP SWAP1 POP DUP1 PUSH0 ADD SLOAD SWAP1 DUP1 PUSH1 0x1 ADD DUP1 SLOAD PUSH2 0x1B2 SWAP1 PUSH2 0x8B6 JUMP JUMPDEST DUP1 PUSH1 0x1F ADD PUSH1 0x20 DUP1 SWAP2 DIV MUL PUSH1 0x20 ADD PUSH1 0x40 MLOAD SWAP1 DUP2 ADD PUSH1 0x40 MSTORE DUP1 SWAP3 SWAP2 SWAP1 DUP2 DUP2 MSTORE PUSH1 0x20 ADD DUP3 DUP1 SLOAD PUSH2 0x1DE SWAP1 PUSH2 0x8B6 JUMP JUMPDEST DUP1 ISZERO PUSH2 0x229 JUMPI DUP1 PUSH1 0x1F LT PUSH2 0x200 JUMPI PUSH2 0x100 DUP1 DUP4 SLOAD DIV MUL DUP4 MSTORE SWAP2 PUSH1 0x20 ADD SWAP2 PUSH2 0x229 JUMP JUMPDEST DUP3 ADD SWAP2 SWAP1 PUSH0 MSTORE PUSH1 0x20 PUSH0 KECCAK256 SWAP1 JUMPDEST DUP2 SLOAD DUP2 MSTORE SWAP1 PUSH1 0x1 ADD SWAP1 PUSH1 0x20 ADD DUP1 DUP4 GT PUSH2 0x20C JUMPI DUP3 SWAP1 SUB PUSH1 0x1F AND DUP3 ADD SWAP2 JUMPDEST POP POP POP POP POP SWAP1 DUP1 PUSH1 0x2 ADD PUSH0 SWAP1 SLOAD SWAP1 PUSH2 0x100 EXP SWAP1 DIV PUSH20 0xFFFFFFFFFFFFFFFFFFFFFFFFFFFFFFFFFFFFFFFF AND SWAP1 POP DUP4 JUMP JUMPDEST PUSH0 PUSH0 SWAP1 SLOAD SWAP1 PUSH2 0x100 EXP SWAP1 DIV PUSH20 0xFFFFFFFFFFFFFFFFFFFFFFFFFFFFFFFFFFFFFFFF AND DUP2 JUMP JUMPDEST PUSH1 0x2 DUP1 SLOAD PUSH2 0x289 SWAP1 PUSH2 0x8B6 JUMP JUMPDEST DUP1 PUSH1 0x1F ADD PUSH1 0x20 DUP1 SWAP2 DIV MUL PUSH1 0x20 ADD PUSH1 0x40 MLOAD SWAP1 DUP2 ADD PUSH1 0x40 MSTORE DUP1 SWAP3 SWAP2 SWAP1 DUP2 DUP2 MSTORE PUSH1 0x20 ADD DUP3 DUP1 SLOAD PUSH2 0x2B5 SWAP1 PUSH2 0x8B6 JUMP JUMPDEST DUP1 ISZERO PUSH2 0x300 JUMPI DUP1 PUSH1 0x1F LT PUSH2 0x2D7 JUMPI PUSH2 0x100 DUP1 DUP4 SLOAD DIV MUL DUP4 MSTORE SWAP2 PUSH1 0x20 ADD SWAP2 PUSH2 0x300 JUMP JUMPDEST DUP3 ADD SWAP2 SWAP1 PUSH0 MSTORE PUSH1 0x20 PUSH0 KECCAK256 SWAP1 JUMPDEST DUP2 SLOAD DUP2 MSTORE SWAP1 PUSH1 0x1 ADD SWAP1 PUSH1 0x20 ADD DUP1 DUP4 GT PUSH2 0x2E3 JUMPI DUP3 SWAP1 SUB PUSH1 0x1F AND DUP3 ADD SWAP2 JUMPDEST POP POP POP POP POP DUP2 JUMP JUMPDEST PUSH0 PUSH0 PUSH0 PUSH0 SWAP1 SLOAD SWAP1 PUSH2 0x100 EXP SWAP1 DIV PUSH20 0xFFFFFFFFFFFFFFFFFFFFFFFFFFFFFFFFFFFFFFFF AND PUSH20 0xFFFFFFFFFFFFFFFFFFFFFFFFFFFFFFFFFFFFFFFF AND PUSH4 0xD091187F DUP5 PUSH1 0x40 MLOAD DUP3 PUSH4 0xFFFFFFFF AND PUSH1 0xE0 SHL DUP2 MSTORE PUSH1 0x4 ADD PUSH2 0x363 SWAP2 SWAP1 PUSH2 0x589 JUMP JUMPDEST PUSH0 PUSH1 0x40 MLOAD DUP1 DUP4 SUB DUP2 DUP7 GAS STATICCALL ISZERO DUP1 ISZERO PUSH2 0x37D JUMPI RETURNDATASIZE PUSH0 PUSH0 RETURNDATACOPY RETURNDATASIZE PUSH0 REVERT JUMPDEST POP POP POP POP PUSH1 0x40 MLOAD RETURNDATASIZE PUSH0 DUP3 RETURNDATACOPY RETURNDATASIZE PUSH1 0x1F NOT PUSH1 0x1F DUP3 ADD AND DUP3 ADD DUP1 PUSH1 0x40 MSTORE POP DUP2 ADD SWAP1 PUSH2 0x3A5 SWAP2 SWAP1 PUSH2 0x9B5 JUMP JUMPDEST SWAP6 POP SWAP6 POP POP POP POP POP PUSH0 PUSH1 0x3 DUP2 GT ISZERO PUSH2 0x3C0 JUMPI PUSH2 0x3BF PUSH2 0xA92 JUMP JUMPDEST JUMPDEST DUP3 PUSH1 0x3 DUP2 GT ISZERO PUSH2 0x3D3 JUMPI PUSH2 0x3D2 PUSH2 0xA92 JUMP JUMPDEST JUMPDEST EQ PUSH2 0x413 JUMPI PUSH1 0x40 MLOAD PUSH32 0x8C379A000000000000000000000000000000000000000000000000000000000 DUP2 MSTORE PUSH1 0x4 ADD PUSH2 0x40A SWAP1 PUSH2 0xB09 JUMP JUMPDEST PUSH1 0x40 MLOAD DUP1 SWAP2 SUB SWAP1 REVERT JUMPDEST PUSH1 0x3 PUSH0 DUP2 SLOAD DUP1 SWAP3 SWAP2 SWAP1 PUSH2 0x425 SWAP1 PUSH2 0xB54 JUMP JUMPDEST SWAP2 SWAP1 POP SSTORE POP PUSH1 0x40 MLOAD DUP1 PUSH1 0x60 ADD PUSH1 0x40 MSTORE DUP1 PUSH1 0x3 SLOAD DUP2 MSTORE PUSH1 0x20 ADD DUP5 DUP2 MSTORE PUSH1 0x20 ADD DUP3 PUSH20 0xFFFFFFFFFFFFFFFFFFFFFFFFFFFFFFFFFFFFFFFF AND DUP2 MSTORE POP PUSH1 0x4 PUSH0 PUSH1 0x3 SLOAD DUP2 MSTORE PUSH1 0x20 ADD SWAP1 DUP2 MSTORE PUSH1 0x20 ADD PUSH0 KECCAK256 PUSH0 DUP3 ADD MLOAD DUP2 PUSH0 ADD SSTORE PUSH1 0x20 DUP3 ADD MLOAD DUP2 PUSH1 0x1 ADD SWAP1 DUP2 PUSH2 0x48D SWAP2 SWAP1 PUSH2 0xD32 JUMP JUMPDEST POP PUSH1 0x40 DUP3 ADD MLOAD DUP2 PUSH1 0x2 ADD PUSH0 PUSH2 0x100 EXP DUP2 SLOAD DUP2 PUSH20 0xFFFFFFFFFFFFFFFFFFFFFFFFFFFFFFFFFFFFFFFF MUL NOT AND SWAP1 DUP4 PUSH20 0xFFFFFFFFFFFFFFFFFFFFFFFFFFFFFFFFFFFFFFFF AND MUL OR SWAP1 SSTORE POP SWAP1 POP POP PUSH32 0x208FC879B2F79F1AD2DB0092DE4D06A54D88CDC1DFF244C49EB2AE363EFD3F61 PUSH1 0x3 SLOAD DUP5 DUP4 PUSH1 0x40 MLOAD PUSH2 0x50C SWAP4 SWAP3 SWAP2 SWAP1 PUSH2 0x666 JUMP JUMPDEST PUSH1 0x40 MLOAD DUP1 SWAP2 SUB SWAP1 LOG1 POP POP POP JUMP JUMPDEST PUSH0 DUP2 MLOAD SWAP1 POP SWAP2 SWAP1 POP JUMP JUMPDEST PUSH0 DUP3 DUP3 MSTORE PUSH1 0x20 DUP3 ADD SWAP1 POP SWAP3 SWAP2 POP POP JUMP JUMPDEST DUP3 DUP2 DUP4 MCOPY PUSH0 DUP4 DUP4 ADD MSTORE POP POP POP JUMP JUMPDEST PUSH0 PUSH1 0x1F NOT PUSH1 0x1F DUP4 ADD AND SWAP1 POP SWAP2 SWAP1 POP JUMP JUMPDEST PUSH0 PUSH2 0x55B DUP3 PUSH2 0x519 JUMP JUMPDEST PUSH2 0x565 DUP2 DUP6 PUSH2 0x523 JUMP JUMPDEST SWAP4 POP PUSH2 0x575 DUP2 DUP6 PUSH1 0x20 DUP7 ADD PUSH2 0x533 JUMP JUMPDEST PUSH2 0x57E DUP2 PUSH2 0x541 JUMP JUMPDEST DUP5 ADD SWAP2 POP POP SWAP3 SWAP2 POP POP JUMP JUMPDEST PUSH0 PUSH1 0x20 DUP3 ADD SWAP1 POP DUP2 DUP2 SUB PUSH0 DUP4 ADD MSTORE PUSH2 0x5A1 DUP2 DUP5 PUSH2 0x551 JUMP JUMPDEST SWAP1 POP SWAP3 SWAP2 POP POP JUMP JUMPDEST PUSH0 PUSH1 0x40 MLOAD SWAP1 POP SWAP1 JUMP JUMPDEST PUSH0 PUSH0 REVERT JUMPDEST PUSH0 PUSH0 REVERT JUMPDEST PUSH0 DUP2 SWAP1 POP SWAP2 SWAP1 POP JUMP JUMPDEST PUSH2 0x5CC DUP2 PUSH2 0x5BA JUMP JUMPDEST DUP2 EQ PUSH2 0x5D6 JUMPI PUSH0 PUSH0 REVERT JUMPDEST POP JUMP JUMPDEST PUSH0 DUP2 CALLDATALOAD SWAP1 POP PUSH2 0x5E7 DUP2 PUSH2 0x5C3 JUMP JUMPDEST SWAP3 SWAP2 POP POP JUMP JUMPDEST PUSH0 PUSH1 0x20 DUP3 DUP5 SUB SLT ISZERO PUSH2 0x602 JUMPI PUSH2 0x601 PUSH2 0x5B2 JUMP JUMPDEST JUMPDEST PUSH0 PUSH2 0x60F DUP5 DUP3 DUP6 ADD PUSH2 0x5D9 JUMP JUMPDEST SWAP2 POP POP SWAP3 SWAP2 POP POP JUMP JUMPDEST PUSH2 0x621 DUP2 PUSH2 0x5BA JUMP JUMPDEST DUP3 MSTORE POP POP JUMP JUMPDEST PUSH0 PUSH20 0xFFFFFFFFFFFFFFFFFFFFFFFFFFFFFFFFFFFFFFFF DUP3 AND SWAP1 POP SWAP2 SWAP1 POP JUMP JUMPDEST PUSH0 PUSH2 0x650 DUP3 PUSH2 0x627 JUMP JUMPDEST SWAP1 POP SWAP2 SWAP1 POP JUMP JUMPDEST PUSH2 0x660 DUP2 PUSH2 0x646 JUMP JUMPDEST DUP3 MSTORE POP POP JUMP JUMPDEST PUSH0 PUSH1 0x60 DUP3 ADD SWAP1 POP PUSH2 0x679 PUSH0 DUP4 ADD DUP7 PUSH2 0x618 JUMP JUMPDEST DUP2 DUP2 SUB PUSH1 0x20 DUP4 ADD MSTORE PUSH2 0x68B DUP2 DUP6 PUSH2 0x551 JUMP JUMPDEST SWAP1 POP PUSH2 0x69A PUSH1 0x40 DUP4 ADD DUP5 PUSH2 0x657 JUMP JUMPDEST SWAP5 SWAP4 POP POP POP POP JUMP JUMPDEST PUSH0 DUP2 SWAP1 POP SWAP2 SWAP1 POP JUMP JUMPDEST PUSH0 PUSH2 0x6C5 PUSH2 0x6C0 PUSH2 0x6BB DUP5 PUSH2 0x627 JUMP JUMPDEST PUSH2 0x6A2 JUMP JUMPDEST PUSH2 0x627 JUMP JUMPDEST SWAP1 POP SWAP2 SWAP1 POP JUMP JUMPDEST PUSH0 PUSH2 0x6D6 DUP3 PUSH2 0x6AB JUMP JUMPDEST SWAP1 POP SWAP2 SWAP1 POP JUMP JUMPDEST PUSH0 PUSH2 0x6E7 DUP3 PUSH2 0x6CC JUMP JUMPDEST SWAP1 POP SWAP2 SWAP1 POP JUMP JUMPDEST PUSH2 0x6F7 DUP2 PUSH2 0x6DD JUMP JUMPDEST DUP3 MSTORE POP POP JUMP JUMPDEST PUSH0 PUSH1 0x20 DUP3 ADD SWAP1 POP PUSH2 0x710 PUSH0 DUP4 ADD DUP5 PUSH2 0x6EE JUMP JUMPDEST SWAP3 SWAP2 POP POP JUMP JUMPDEST PUSH0 PUSH0 REVERT JUMPDEST PUSH0 PUSH0 REVERT JUMPDEST PUSH32 0x4E487B7100000000000000000000000000000000000000000000000000000000 PUSH0 MSTORE PUSH1 0x41 PUSH1 0x4 MSTORE PUSH1 0x24 PUSH0 REVERT JUMPDEST PUSH2 0x754 DUP3 PUSH2 0x541 JUMP JUMPDEST DUP2 ADD DUP2 DUP2 LT PUSH8 0xFFFFFFFFFFFFFFFF DUP3 GT OR ISZERO PUSH2 0x773 JUMPI PUSH2 0x772 PUSH2 0x71E JUMP JUMPDEST JUMPDEST DUP1 PUSH1 0x40 MSTORE POP POP POP JUMP JUMPDEST PUSH0 PUSH2 0x785 PUSH2 0x5A9 JUMP JUMPDEST SWAP1 POP PUSH2 0x791 DUP3 DUP3 PUSH2 0x74B JUMP JUMPDEST SWAP2 SWAP1 POP JUMP JUMPDEST PUSH0 PUSH8 0xFFFFFFFFFFFFFFFF DUP3 GT ISZERO PUSH2 0x7B0 JUMPI PUSH2 0x7AF PUSH2 0x71E JUMP JUMPDEST JUMPDEST PUSH2 0x7B9 DUP3 PUSH2 0x541 JUMP JUMPDEST SWAP1 POP PUSH1 0x20 DUP2 ADD SWAP1 POP SWAP2 SWAP1 POP JUMP JUMPDEST DUP3 DUP2 DUP4 CALLDATACOPY PUSH0 DUP4 DUP4 ADD MSTORE POP POP POP JUMP JUMPDEST PUSH0 PUSH2 0x7E6 PUSH2 0x7E1 DUP5 PUSH2 0x796 JUMP JUMPDEST PUSH2 0x77C JUMP JUMPDEST SWAP1 POP DUP3 DUP2 MSTORE PUSH1 0x20 DUP2 ADD DUP5 DUP5 DUP5 ADD GT ISZERO PUSH2 0x802 JUMPI PUSH2 0x801 PUSH2 0x71A JUMP JUMPDEST JUMPDEST PUSH2 0x80D DUP5 DUP3 DUP6 PUSH2 0x7C6 JUMP JUMPDEST POP SWAP4 SWAP3 POP POP POP JUMP JUMPDEST PUSH0 DUP3 PUSH1 0x1F DUP4 ADD SLT PUSH2 0x829 JUMPI PUSH2 0x828 PUSH2 0x716 JUMP JUMPDEST JUMPDEST DUP2 CALLDATALOAD PUSH2 0x839 DUP5 DUP3 PUSH1 0x20 DUP7 ADD PUSH2 0x7D4 JUMP JUMPDEST SWAP2 POP POP SWAP3 SWAP2 POP POP JUMP JUMPDEST PUSH0 PUSH1 0x20 DUP3 DUP5 SUB SLT ISZERO PUSH2 0x857 JUMPI PUSH2 0x856 PUSH2 0x5B2 JUMP JUMPDEST JUMPDEST PUSH0 DUP3 ADD CALLDATALOAD PUSH8 0xFFFFFFFFFFFFFFFF DUP2 GT ISZERO PUSH2 0x874 JUMPI PUSH2 0x873 PUSH2 0x5B6 JUMP JUMPDEST JUMPDEST PUSH2 0x880 DUP5 DUP3 DUP6 ADD PUSH2 0x815 JUMP JUMPDEST SWAP2 POP POP SWAP3 SWAP2 POP POP JUMP JUMPDEST PUSH32 0x4E487B7100000000000000000000000000000000000000000000000000000000 PUSH0 MSTORE PUSH1 0x22 PUSH1 0x4 MSTORE PUSH1 0x24 PUSH0 REVERT JUMPDEST PUSH0 PUSH1 0x2 DUP3 DIV SWAP1 POP PUSH1 0x1 DUP3 AND DUP1 PUSH2 0x8CD JUMPI PUSH1 0x7F DUP3 AND SWAP2 POP JUMPDEST PUSH1 0x20 DUP3 LT DUP2 SUB PUSH2 0x8E0 JUMPI PUSH2 0x8DF PUSH2 0x889 JUMP JUMPDEST JUMPDEST POP SWAP2 SWAP1 POP JUMP JUMPDEST PUSH0 PUSH2 0x8F8 PUSH2 0x8F3 DUP5 PUSH2 0x796 JUMP JUMPDEST PUSH2 0x77C JUMP JUMPDEST SWAP1 POP DUP3 DUP2 MSTORE PUSH1 0x20 DUP2 ADD DUP5 DUP5 DUP5 ADD GT ISZERO PUSH2 0x914 JUMPI PUSH2 0x913 PUSH2 0x71A JUMP JUMPDEST JUMPDEST PUSH2 0x91F DUP5 DUP3 DUP6 PUSH2 0x533 JUMP JUMPDEST POP SWAP4 SWAP3 POP POP POP JUMP JUMPDEST PUSH0 DUP3 PUSH1 0x1F DUP4 ADD SLT PUSH2 0x93B JUMPI PUSH2 0x93A PUSH2 0x716 JUMP JUMPDEST JUMPDEST DUP2 MLOAD PUSH2 0x94B DUP5 DUP3 PUSH1 0x20 DUP7 ADD PUSH2 0x8E6 JUMP JUMPDEST SWAP2 POP POP SWAP3 SWAP2 POP POP JUMP JUMPDEST PUSH0 DUP2 MLOAD SWAP1 POP PUSH2 0x962 DUP2 PUSH2 0x5C3 JUMP JUMPDEST SWAP3 SWAP2 POP POP JUMP JUMPDEST PUSH1 0x4 DUP2 LT PUSH2 0x974 JUMPI PUSH0 PUSH0 REVERT JUMPDEST POP JUMP JUMPDEST PUSH0 DUP2 MLOAD SWAP1 POP PUSH2 0x985 DUP2 PUSH2 0x968 JUMP JUMPDEST SWAP3 SWAP2 POP POP JUMP JUMPDEST PUSH2 0x994 DUP2 PUSH2 0x646 JUMP JUMPDEST DUP2 EQ PUSH2 0x99E JUMPI PUSH0 PUSH0 REVERT JUMPDEST POP JUMP JUMPDEST PUSH0 DUP2 MLOAD SWAP1 POP PUSH2 0x9AF DUP2 PUSH2 0x98B JUMP JUMPDEST SWAP3 SWAP2 POP POP JUMP JUMPDEST PUSH0 PUSH0 PUSH0 PUSH0 PUSH0 PUSH0 PUSH1 0xC0 DUP8 DUP10 SUB SLT ISZERO PUSH2 0x9CF JUMPI PUSH2 0x9CE PUSH2 0x5B2 JUMP JUMPDEST JUMPDEST PUSH0 DUP8 ADD MLOAD PUSH8 0xFFFFFFFFFFFFFFFF DUP2 GT ISZERO PUSH2 0x9EC JUMPI PUSH2 0x9EB PUSH2 0x5B6 JUMP JUMPDEST JUMPDEST PUSH2 0x9F8 DUP10 DUP3 DUP11 ADD PUSH2 0x927 JUMP JUMPDEST SWAP7 POP POP PUSH1 0x20 DUP8 ADD MLOAD PUSH8 0xFFFFFFFFFFFFFFFF DUP2 GT ISZERO PUSH2 0xA19 JUMPI PUSH2 0xA18 PUSH2 0x5B6 JUMP JUMPDEST JUMPDEST PUSH2 0xA25 DUP10 DUP3 DUP11 ADD PUSH2 0x927 JUMP JUMPDEST SWAP6 POP POP PUSH1 0x40 DUP8 ADD MLOAD PUSH8 0xFFFFFFFFFFFFFFFF DUP2 GT ISZERO PUSH2 0xA46 JUMPI PUSH2 0xA45 PUSH2 0x5B6 JUMP JUMPDEST JUMPDEST PUSH2 0xA52 DUP10 DUP3 DUP11 ADD PUSH2 0x927 JUMP JUMPDEST SWAP5 POP POP PUSH1 0x60 PUSH2 0xA63 DUP10 DUP3 DUP11 ADD PUSH2 0x954 JUMP JUMPDEST SWAP4 POP POP PUSH1 0x80 PUSH2 0xA74 DUP10 DUP3 DUP11 ADD PUSH2 0x977 JUMP JUMPDEST SWAP3 POP POP PUSH1 0xA0 PUSH2 0xA85 DUP10 DUP3 DUP11 ADD PUSH2 0x9A1 JUMP JUMPDEST SWAP2 POP POP SWAP3 SWAP6 POP SWAP3 SWAP6 POP SWAP3 SWAP6 JUMP JUMPDEST PUSH32 0x4E487B7100000000000000000000000000000000000000000000000000000000 PUSH0 MSTORE PUSH1 0x21 PUSH1 0x4 MSTORE PUSH1 0x24 PUSH0 REVERT JUMPDEST PUSH32 0x43726564656E7469616C206E6F74206163746976650000000000000000000000 PUSH0 DUP3 ADD MSTORE POP JUMP JUMPDEST PUSH0 PUSH2 0xAF3 PUSH1 0x15 DUP4 PUSH2 0x523 JUMP JUMPDEST SWAP2 POP PUSH2 0xAFE DUP3 PUSH2 0xABF JUMP JUMPDEST PUSH1 0x20 DUP3 ADD SWAP1 POP SWAP2 SWAP1 POP JUMP JUMPDEST PUSH0 PUSH1 0x20 DUP3 ADD SWAP1 POP DUP2 DUP2 SUB PUSH0 DUP4 ADD MSTORE PUSH2 0xB20 DUP2 PUSH2 0xAE7 JUMP JUMPDEST SWAP1 POP SWAP2 SWAP1 POP JUMP JUMPDEST PUSH32 0x4E487B7100000000000000000000000000000000000000000000000000000000 PUSH0 MSTORE PUSH1 0x11 PUSH1 0x4 MSTORE PUSH1 0x24 PUSH0 REVERT JUMPDEST PUSH0 PUSH2 0xB5E DUP3 PUSH2 0x5BA JUMP JUMPDEST SWAP2 POP PUSH32 0xFFFFFFFFFFFFFFFFFFFFFFFFFFFFFFFFFFFFFFFFFFFFFFFFFFFFFFFFFFFFFFFF DUP3 SUB PUSH2 0xB90 JUMPI PUSH2 0xB8F PUSH2 0xB27 JUMP JUMPDEST JUMPDEST PUSH1 0x1 DUP3 ADD SWAP1 POP SWAP2 SWAP1 POP JUMP JUMPDEST PUSH0 DUP2 SWAP1 POP DUP2 PUSH0 MSTORE PUSH1 0x20 PUSH0 KECCAK256 SWAP1 POP SWAP2 SWAP1 POP JUMP JUMPDEST PUSH0 PUSH1 0x20 PUSH1 0x1F DUP4 ADD DIV SWAP1 POP SWAP2 SWAP1 POP JUMP JUMPDEST PUSH0 DUP3 DUP3 SHL SWAP1 POP SWAP3 SWAP2 POP POP JUMP JUMPDEST PUSH0 PUSH1 0x8 DUP4 MUL PUSH2 0xBF7 PUSH32 0xFFFFFFFFFFFFFFFFFFFFFFFFFFFFFFFFFFFFFFFFFFFFFFFFFFFFFFFFFFFFFFFF DUP3 PUSH2 0xBBC JUMP JUMPDEST PUSH2 0xC01 DUP7 DUP4 PUSH2 0xBBC JUMP JUMPDEST SWAP6 POP DUP1 NOT DUP5 AND SWAP4 POP DUP1 DUP7 AND DUP5 OR SWAP3 POP POP POP SWAP4 SWAP3 POP POP POP JUMP JUMPDEST PUSH0 PUSH2 0xC33 PUSH2 0xC2E PUSH2 0xC29 DUP5 PUSH2 0x5BA JUMP JUMPDEST PUSH2 0x6A2 JUMP JUMPDEST PUSH2 0x5BA JUMP JUMPDEST SWAP1 POP SWAP2 SWAP1 POP JUMP JUMPDEST PUSH0 DUP2 SWAP1 POP SWAP2 SWAP1 POP JUMP JUMPDEST PUSH2 0xC4C DUP4 PUSH2 0xC19 JUMP JUMPDEST PUSH2 0xC60 PUSH2 0xC58 DUP3 PUSH2 0xC3A JUMP JUMPDEST DUP5 DUP5 SLOAD PUSH2 0xBC8 JUMP JUMPDEST DUP3 SSTORE POP POP POP POP JUMP JUMPDEST PUSH0 PUSH0 SWAP1 POP SWAP1 JUMP JUMPDEST PUSH2 0xC77 PUSH2 0xC68 JUMP JUMPDEST PUSH2 0xC82 DUP2 DUP5 DUP5 PUSH2 0xC43 JUMP JUMPDEST POP POP POP JUMP JUMPDEST JUMPDEST DUP2 DUP2 LT ISZERO PUSH2 0xCA5 JUMPI PUSH2 0xC9A PUSH0 DUP3 PUSH2 0xC6F JUMP JUMPDEST PUSH1 0x1 DUP2 ADD SWAP1 POP PUSH2 0xC88 JUMP JUMPDEST POP POP JUMP JUMPDEST PUSH1 0x1F DUP3 GT ISZERO PUSH2 0xCEA JUMPI PUSH2 0xCBB DUP2 PUSH2 0xB9B JUMP JUMPDEST PUSH2 0xCC4 DUP5 PUSH2 0xBAD JUMP JUMPDEST DUP2 ADD PUSH1 0x20 DUP6 LT ISZERO PUSH2 0xCD3 JUMPI DUP2 SWAP1 POP JUMPDEST PUSH2 0xCE7 PUSH2 0xCDF DUP6 PUSH2 0xBAD JUMP JUMPDEST DUP4 ADD DUP3 PUSH2 0xC87 JUMP JUMPDEST POP POP JUMPDEST POP POP POP JUMP JUMPDEST PUSH0 DUP3 DUP3 SHR SWAP1 POP SWAP3 SWAP2 POP POP JUMP JUMPDEST PUSH0 PUSH2 0xD0A PUSH0 NOT DUP5 PUSH1 0x8 MUL PUSH2 0xCEF JUMP JUMPDEST NOT DUP1 DUP4 AND SWAP2 POP POP SWAP3 SWAP2 POP POP JUMP JUMPDEST PUSH0 PUSH2 0xD22 DUP4 DUP4 PUSH2 0xCFB JUMP JUMPDEST SWAP2 POP DUP3 PUSH1 0x2 MUL DUP3 OR SWAP1 POP SWAP3 SWAP2 POP POP JUMP JUMPDEST PUSH2 0xD3B DUP3 PUSH2 0x519 JUMP JUMPDEST PUSH8 0xFFFFFFFFFFFFFFFF DUP2 GT ISZERO PUSH2 0xD54 JUMPI PUSH2 0xD53 PUSH2 0x71E JUMP JUMPDEST JUMPDEST PUSH2 0xD5E DUP3 SLOAD PUSH2 0x8B6 JUMP JUMPDEST PUSH2 0xD69 DUP3 DUP3 DUP6 PUSH2 0xCA9 JUMP JUMPDEST PUSH0 PUSH1 0x20 SWAP1 POP PUSH1 0x1F DUP4 GT PUSH1 0x1 DUP2 EQ PUSH2 0xD9A JUMPI PUSH0 DUP5 ISZERO PUSH2 0xD88 JUMPI DUP3 DUP8 ADD MLOAD SWAP1 POP JUMPDEST PUSH2 0xD92 DUP6 DUP3 PUSH2 0xD17 JUMP JUMPDEST DUP7 SSTORE POP PUSH2 0xDF9 JUMP JUMPDEST PUSH1 0x1F NOT DUP5 AND PUSH2 0xDA8 DUP7 PUSH2 0xB9B JUMP JUMPDEST PUSH0 JUMPDEST DUP3 DUP2 LT ISZERO PUSH2 0xDCF JUMPI DUP5 DUP10 ADD MLOAD DUP3 SSTORE PUSH1 0x1 DUP3 ADD SWAP2 POP PUSH1 0x20 DUP6 ADD SWAP5 POP PUSH1 0x20 DUP2 ADD SWAP1 POP PUSH2 0xDAA JUMP JUMPDEST DUP7 DUP4 LT ISZERO PUSH2 0xDEC JUMPI DUP5 DUP10 ADD MLOAD PUSH2 0xDE8 PUSH1 0x1F DUP10 AND DUP3 PUSH2 0xCFB JUMP JUMPDEST DUP4 SSTORE POP JUMPDEST PUSH1 0x1 PUSH1 0x2 DUP9 MUL ADD DUP9 SSTORE POP POP POP JUMPDEST POP POP POP POP POP POP JUMP INVALID LOG2 PUSH5 0x6970667358 0x22 SLT KECCAK256 CALLCODE 0x23 EXP DUP4 0xAF PUSH31 0x77CF0E1267F12E076744CA7B578C31CA65EA4475C951A368180F64736F6C63 NUMBER STOP ADDMOD 0x1E STOP CALLER "
		},
		"gasEstimates": {
			"creation": {
				"codeDepositCost": "727800",
				"executionCost": "infinite",
				"totalCost": "infinite"
			},
			"external": {
				"mintCredential(string)": "infinite",
				"name()": "infinite",
				"registry()": "infinite",
				"symbol()": "infinite",
				"tokens(uint256)": "infinite"
			}
		},
		"methodIdentifiers": {
			"mintCredential(string)": "ce4a84e9",
			"name()": "06fdde03",
			"registry()": "7b103999",
			"symbol()": "95d89b41",
			"tokens(uint256)": "4f64b2be"
		}
	},
	"abi": [
		{
			"inputs": [
				{
					"internalType": "address",
					"name": "registryAddress",
					"type": "address"
				}
			],
			"stateMutability": "nonpayable",
			"type": "constructor"
		},
		{
			"anonymous": false,
			"inputs": [
				{
					"indexed": false,
					"internalType": "uint256",
					"name": "tokenID",
					"type": "uint256"
				},
				{
					"indexed": false,
					"internalType": "string",
					"name": "credentialID",
					"type": "string"
				},
				{
					"indexed": false,
					"internalType": "address",
					"name": "graduate",
					"type": "address"
				}
			],
			"name": "CredentialMinted",
			"type": "event"
		},
		{
			"inputs": [
				{
					"internalType": "string",
					"name": "_credentialID",
					"type": "string"
				}
			],
			"name": "mintCredential",
			"outputs": [],
			"stateMutability": "nonpayable",
			"type": "function"
		},
		{
			"inputs": [],
			"name": "name",
			"outputs": [
				{
					"internalType": "string",
					"name": "",
					"type": "string"
				}
			],
			"stateMutability": "view",
			"type": "function"
		},
		{
			"inputs": [],
			"name": "registry",
			"outputs": [
				{
					"internalType": "contract Registry",
					"name": "",
					"type": "address"
				}
			],
			"stateMutability": "view",
			"type": "function"
		},
		{
			"inputs": [],
			"name": "symbol",
			"outputs": [
				{
					"internalType": "string",
					"name": "",
					"type": "string"
				}
			],
			"stateMutability": "view",
			"type": "function"
		},
		{
			"inputs": [
				{
					"internalType": "uint256",
					"name": "",
					"type": "uint256"
				}
			],
			"name": "tokens",
			"outputs": [
				{
					"internalType": "uint256",
					"name": "tokenID",
					"type": "uint256"
				},
				{
					"internalType": "string",
					"name": "credentialID",
					"type": "string"
				},
				{
					"internalType": "address",
					"name": "owner",
					"type": "address"
				}
			],
			"stateMutability": "view",
			"type": "function"
		}
	]
}